:020000040800F2
:100000008005002045010008F3290008F1200008C0
:10001000F12900089D080008E12E000800000000FA
:10002000000000000000000000000000F7290008A8
:100030000909000800000000F5290008F929000856
:100040005F0100085F0100085F0100085F01000810
:100050005F0100085F0100085F0100085F01000800
:100060005F0100085F0100085F0100085F010008F0
:100070005F0100085F010008A1080008AD08000842
:100080005F0100085F0100085F0100085F010008D0
:100090005F0100085F0100085F0100080B0900080C
:1000A0005F0100085F0100085F0100085F010008B0
:1000B0005F0100085F0100085F0100085F010008A0
:1000C0005F0100085F0100085F0100085F01000890
:1000D0005F010008D52E00085F0100085F010008DD
:1000E0005F0100085F0100085F0100085F01000870
:1000F0005F0100085F0100085F0100085F01000860
:100100005F0100085F0100085F0100085F0100084F
:100110005F0100085F0100085F0100085F0100083F
:100120005F0100085F0100085F0100085F0100082F
:10013000DFF80CD000F022FB004800472938000807
:10014000800500200648804706480047FEE7FEE796
:10015000FEE7FEE7FEE7FEE7FEE7FEE7FEE7FEE777
:100160005B2A000831010008202A04DB203A21FA2A
:1001700002F00021704721FA02F3D040C2F12002C0
:100180009140084319467047D2B201E000F8012BB4
:10019000491EFBD270470022F6E710B513460A4607
:1001A00004461946FFF7F0FF204610BDF0B480EA80
:1001B0000102D40F4200B2EB410F02D202460846C0
:1001C00011464A0042D0C30DDDB2C1F3C752AD1A89
:1001D000202D35DAC1F3160141F4000204B1524278
:1001E000C5F1200602FA06F12A411044B3EBD05FB4
:1001F00023D0C4B1012DA0EBC35009DCF0BC4FF0FB
:10020000004202EAC352DBB200F5000000F0D0B8B1
:10021000400000F1807000EBC350A0F1807040EA14
:10022000D170490009E0490841EAC071A0EBC35010
:1002300000F50000400800EBC350F0BC00F0AFB880
:100240006142012202EB4101001BF6E7F0BC70475E
:1002500081F00041AAE780F00040A7E730B480EACF
:10026000010202F0004530F0004221F0004013D0BE
:1002700090B1C30DD40DC2F31601C0F31600E41AF9
:1002800041F4000140F400027D34914201D3641C2A
:1002900000E04900002C02DA30BC002070474FF427
:1002A00000000023914201D3891A034340084FEA1A
:1002B0004101F7D151B1914202D14FF0004105E027
:1002C00002D24FF0010101E06FF0010103EBC450D5
:1002D000284430BC00F063B8C10F80EAE0700844E5
:1002E000CA079623002100F063B800F0004230F006
:1002F00000400AD0C10D01F56071C0F3160042EA5A
:100300000151C20840071143704700200146704761
:1003100030B50B46014600202022012409E021FAD5
:1003200002F59D4205D303FA02F5491B04FA02F5D2
:100330002844151EA2F10102F1DC30BD2DE9F05F69
:100340000546002092469B46884606468146402444
:100350001BE02846414647462246FFF705FF534625
:100360005A46C01A914110D311461846224600F051
:1003700017FA2D1A67EB01084F462246012000218B
:1003800000F00EFA17EB00094E41201EA4F1010403
:10039000DFDC484631462A464346BDE8F09F002947
:1003A000A8BF7047401C490008BF20F001007047FB
:1003B00010B4B0FA80FC00FA0CF050EA010404BF5B
:1003C00010BC704749B1CCF1200421FA04F411FAB1
:1003D0000CF118BF012121430843A3EB0C01CB1DF5
:1003E0004FEA00614FEA102042BF002010BC704766
:1003F00000EBC35010440029A4BF10BC7047401C40
:10040000490008BF20F0010010BC70472DE9FE4FE5
:10041000804681EA0300C00F0C46009021F00041A5
:1004200023F00045B8EB0200A94105D24046214621
:1004300090461C460B46024623F00040104347D02E
:10044000270DC7F30A00C3F30A510290401A019026
:1004500040286BDAC3F3130040F4801B00989246E7
:1004600020B10023D2EB030A63EB0B0B0198594632
:10047000C0F14002504600F093F906460D46504642
:100480005946019A00F09BF910EB080061410024E5
:1004900087EA115284EAE7731A4340D0009A62B3A4
:1004A000019A012A4FEA075215DC001B61EB020199
:1004B0004FF0004202EA0752CDE90042001C41F52C
:1004C000801132462B4600F09BF903B0BDE8F08F57
:1004D00040462146F9E7001B61EB0201001C41F593
:1004E000801300185B412018A2F5001747EB0301A9
:1004F00040EAD570B6196D4111E06D084FEA360635
:1005000045EAC0754FEA0752001B61EB0201001C6F
:1005100041F5801149084FEA300000195141324637
:100520002B4603B0BDE8F04F00F05BB90098012204
:1005300040000023D0EB020263EBE07300982146F9
:100540004FEAE074B8EB000061EB0401E9E783F0E7
:1005500000435BE781F0004158E72DE9FE4F81EA57
:10056000030404F0004421F0004100944FF0000B1C
:1005700023F0004350EA01045ED052EA03045BD04A
:10058000C3F30A54C1F30A552C44A4F2F334019482
:10059000A0FB0254C1F3130141F48011C3F3130310
:1005A00043F4801301FB024400FB034E840A970AC4
:1005B00044EA815447EA8357A4FB076802958D0AF1
:1005C00005FB07854FEA932C04FB0C542705029D7D
:1005D0004FEA065847EA1637B5EB08056EEB070CED
:1005E000870E920E47EA811742EA8312A7FB0201A7
:1005F000B6EB0B0164EB00042B0D43EA0C335E18E1
:1006000044EB1C50DA465146E7FB0201C5F31304E4
:100610004FEA0B3343EA14534FEA0432019C43EA96
:100620000603A4F10C040294009CCDE900B400F090
:10063000E7F803B0BDE8F08F00200146F9E72DE9A7
:10064000F04D81EA030404F0004B21F0004514460C
:100650004FF0000A23F0004150EA050220D054EA8E
:1006600001021DD0C5F30A570246C5F31303C1F3B7
:100670001300C1F30A5640F4801543F48013A7EB2E
:100680000608101BD64608F2FD3873EB050002D3AE
:1006900008F1010801E092185B41B8F1000F03DA9C
:1006A00000200146BDE8F08D00204FF48011064681
:1006B00084460EE0171B73EB050705D3121B63EB93
:1006C000050306434CEA010C49084FEA3000921832
:1006D0005B4150EA0107EDD152EA030012D082EAF1
:1006E000040083EA0501084305D0101BAB4106D284
:1006F0000122002306E000224FF0004302E06FF0E9
:10070000010253101AEB06004CEB085110EB0A00E3
:1007100041EB0B01BDE8F04D00F063B8C1F30A52A4
:10072000C1F3130140F2FF3341F480119A4202DA1F
:1007300000200146704740F233439A42A2F233420E
:1007400002DC5242FFF710BD00F02AB830B5041E9B
:1007500071F1000404DB4FF00044404264EB0101FE
:10076000141E73F1000405DB1C464FF00043524297
:1007700063EB0403994208BF904230BD064C074D1D
:1007800006E0E06840F0010394E807009847103461
:10079000AC42F6D3FFF7D0FC84380008A438000838
:1007A000202A04DB203A00FA02F100207047914031
:1007B000C2F1200320FA03F3194390407047202A26
:1007C00006DBCB17203A41FA02F043EAE07306E079
:1007D00041FA02F3D040C2F1200291400843194689
:1007E000704710B5141E73F1000408DA401C41F183
:1007F000000192185B411A4301D120F0010010BDA5
:100800002DE9F04D92469B4611B1B1FA81F202E01A
:10081000B0FA80F220329046FFF7C2FF04460F463E
:1008200040EA0A0041EA0B0153465A46084313D0F6
:10083000114653EA010019D0C8F140025046FFF7B3
:1008400093FC05460E46504659464246FFF7A8FF20
:10085000084305D0012004E020463946BDE8F08D6C
:100860000020054346EAE0762C4337430A986305A7
:10087000E40AA0EB08000022FD0A44EA47540A30CB
:1008800002D500200146E9E7010510196941DDE9BB
:10089000084500196941BDE8F04DA2E7FEE70000F8
:1008A000014800F0F7B80000F4000020014800F013
:1008B000F1B800003801002030B590F84050012414
:1008C000AC40C56B6C60046863604368102B0368C0
:1008D00003D099600068C26030BD9A600068C16052
:1008E00030BD00000648016841F080710160054894
:1008F00000214160016841F0010101607047000082
:10090000FCED00E0001000E07047802000F06ABAC3
:1009100072B6FEE710B590F821100022022905D02A
:100920000421816380F82020012010BD01680B683C
:1009300023F00E030B6001680B6823F001030B60CA
:1009400090F84030C46B012101FA03F3636080F832
:10095000211080F82020104610BD00002DE9F05F26
:1009600090F821100024022903D00421816301247E
:1009700085E001680A6822F00E020A6001680A68D0
:1009800022F001020A603F4E3E4FB215DFF8F4C07C
:10099000DFF8F090DFF8ECA0DFF8E8B0DFF8E4E093
:1009A0000168783F13011502ACF1640CA9F15009FC
:1009B000AAF13C0AABF1280BAEF1140E4FF48018EB
:1009C000B14227D9B9420ED0614512D049451DD058
:1009D000514518D0594518D0714501D1424615E00E
:1009E000294EB14201D1012210E0274E1436B14206
:1009F00001D110220AE0244E2836B14206D0224A04
:100A00003C32914201D11A4600E02A461E49091F94
:100A10000A602BE0B94213D0614517D0494522D076
:100A200051451DD059451DD0714501D142461AE0AE
:100A3000B14202D14FF0807215E0134EB14201D1A4
:100A4000012210E0104E1436B14201D110220AE00A
:100A50000D4E2836B14206D00B4A3C32914201D1AC
:100A60001A4600E02A46074980394A60012180F889
:100A70002110002180F82010416B01B188472046E9
:100A8000BDE8F09F800002400804024090F8210079
:100A9000704700002DE9F05FC16B0A6801680B68C0
:100AA000046C4FF0040808FA04F8844D844E854F16
:100AB000DFF814C2DFF81492DFF814A2DFF814B2E2
:100AC000DFF814E218EA020F65D05FEA437862D5D6
:100AD0000A68920603D40A6822F004020A60DFF86A
:100AE000F0814FF48062016808F1140813011402C8
:100AF000414524D9A9420DD0B1420FD0B9421AD0F4
:100B0000614515D0494515D0514501D1120312E078
:100B1000594501D104220EE0714501D140220AE07D
:100B20006D4D1435A94206D06B4A2832914201D14D
:100B30001A4600E022466749091F0A6029E0A942D7
:100B400013D0B14215D0B94220D061451BD04945E0
:100B50001BD0514502D14FF4800217E0414502D12C
:100B60004FF0806212E0594501D104220EE0714538
:100B700001D140220AE0584D1435A94206D0564A08
:100B80002832914201D11A4600E022464B490839E9
:100B90004A60C16A71E04FF0020808FA04F818EAE6
:100BA000020F70D05FEA83786DD50A68920606D48A
:100BB0000A6822F00A020A60012180F82110DFF899
:100BC00010814FF40072016808F114081301140237
:100BD000414524D9A9420DD0B1420FD0B9421AD013
:100BE000614515D0494515D0514501D1120312E098
:100BF000594501D102220EE0714501D120220AE0BF
:100C0000354D1435A94206D0334A2832914201D1DC
:100C10001A4600E022462F49091F0A6029E0A9422E
:100C200013D0B14215D0B94220D061451BD04945FF
:100C30001BD0514502D14FF4001217E0414502D1BB
:100C40004FF0007212E0594501D102220EE07145C9
:100C500001D120220AE0204D1435A94206D01E4AB7
:100C60002832914201D11A4600E022461349083940
:100C70004A60002180F82010816A00291CD0BDE85C
:100C8000F05F0847FFE70825A540154214D01A0772
:100C900012D50A6822F00E020A6090F84020C36B59
:100CA000012101FA02F25A60816380F821100021CB
:100CB00080F82010016BE0E7BDE8F09F08000240DB
:100CC0001C00024030000240440002405800024034
:100CD0006C000240080402401C04024030B560B1C0
:100CE0001A4B026814219A4209D2194B1344B3FBE0
:100CF000F1F18900016417490AE0012030BD134B6E
:100D00005B421344B3FBF1F1890001640F490839D8
:100D1000C163022180F82110136843F6F0718B4300
:100D2000F0E901142143D0E902452C432143046931
:100D300021434469214384692143194311600021FF
:100D40004163012242770177084630BD0804024022
:100D5000F8FFFDBF0000024070B5044690F8200087
:100D6000002501280CD0012084F8200094F821608F
:100D70000020012E06D084F820000225284670BDF0
:100D8000022070BD022684F82160A06320680668F6
:100D900026F0010606602046FFF78EFDE06A002877
:100DA0002068016802D041F00E0106E021F0040144
:100DB00001602068016841F00A0101602068016853
:100DC00041F001010160D9E7802806D103490120E3
:100DD00008702021024800F00DB970471000002073
:100DE00000180140044910B50A68024202D00860A8
:100DF000FFF7EAFF10BD0000140401402DE9F84F91
:100E0000DFF8C8910024A9F1040B23460F2709F14C
:100E1000040AABF1040ED1E00125A54006EA050263
:100E2000AA4276D1DFF8A8C14E68A6EB0C08664549
:100E30002BD00DDC032E34D005DC36B3012E19D0B7
:100E4000022E2FD11BE0112E16D0122E2AD119E01E
:100E5000B8F5881F19D006DCB8F5803F15D0B8F575
:100E6000801F1FD111E0B8F5001F0ED0B8F5041F88
:100E700018D10AE0CB6815E0CB681B1D12E0CB68E7
:100E800008330FE0CB680C330CE08B682BB1012BDF
:100E90004FF0080303D0456104E0042302E005613C
:100EA00000E00023FF2A01D8064601E000F1040615
:100EB0004FEA840501D9A5F12005D6F8008007FA8C
:100EC00005FC28EA0C0803FA05F548EA0508C6F807
:100ED00000804D68ED0070D53E4DAE6946F00106CC
:100EE000AE61AD6924F0030605F0010500953A4DA9
:100EF00006EB050CDCF80850A607360F07FA06F8D3
:100F000025EA0805DFF8D480404503D14FF00008FA
:100F100025E052E0DFF8C880404502D14FF00108DB
:100F20001DE0DFF8C080404502D14FF0020816E016
:100F3000DFF8B480404502D14FF003080FE0DFF83E
:100F4000AC80404502D14FF0040808E0DFF8A080F3
:100F5000404502D14FF0050801E04FF0060808FABD
:100F600006F848EA0508CCF808804D68D9F8006012
:100F7000ED024D4601D5164300E096432E604D68C4
:100F8000DAF80060AD02554601D5164300E09643FD
:100F90002E604D68DBF80060AD035D4601D5164359
:100FA00000E096432E604D68DEF80060ED03754664
:100FB00001D5164300E096432E60641C0A6816466D
:100FC000E2407FF429AFBDE8F88F0000080401403B
:100FD0000000111000100240000001400008014014
:100FE000000C0140001001400014014000180140B5
:100FF000001C0140C26821EA02030A4043EA0241A0
:10100000016170470AB1016170470904FBE7000004
:1010100001488068704700000000002070B504009F
:1010200025D094F83D00002520B984F83C50204696
:1010300000F076FA242084F83D002068016821F051
:10104000010101602068016841F4004101602068ED
:10105000016821F40041016000F0BEFB4D4A616867
:10106000914201D84C4900E04C49884201D201200C
:1010700070BD4B492368B0FBF1F15E6826F03F0676
:101080000E435E606368934206D94FF496735943EA
:101090004FF47A73B1FBF3F12368491C1E6A26F002
:1010A0003F06314319626168914210D84900401EE1
:1010B000B0FBF1F2521CC2F30B02042A01D204204D
:1010C00022E0B0FBF1F0401CC0F30B001CE0A26872
:1010D000F2B301EBC10303EB0116431EB3FBF6F3BE
:1010E0005B1C43F480431B0549D092B301EBC10262
:1010F00002EB0111401EB0FBF1F0401CC0F30B00ED
:1011000040F4804040F400402168CA694CF6FF7307
:101110009A431043C861D4E907100143206802686C
:1011200022F0C00211430160D4E9030101432068A9
:10113000826848F2FF339A4311438160D4E9050184
:1011400008432168CA6822F0FF021043C86001E02A
:101150000EE016E02068016841F00101016025649D
:10116000202084F83D00256384F83E50002070BDA7
:1011700001EB4106431EB3FBF6F35B1CB3E7012012
:10118000C2E701EB4101401EB0FBF1F0401CC0F38F
:101190000B00B7E7A086010080841E0000093D0017
:1011A00040420F002DE9F84F0025DDF828909846C1
:1011B00017468A4604460095FFF72AFF064694F82C
:1011C0003D0020287AD11923012286492046009625
:1011D00001F096F80028F5D194F83C0001286DD074
:1011E000012084F83C0020680168C90703D1016828
:1011F00041F0010101602068016821F40061016093
:10120000222084F83D00102084F83E0025646762A7
:10121000A4F82A80608D20857348E06233464A46F0
:101220005146204600F07CFF00287CD1208DDFF85D
:10123000BC81202768B1012814D0022820680168E9
:101240001ED041F48061016020684169806900908E
:10125000BBE02068416981690091016841F4007137
:101260000160B2E02068016821F48061016072B61B
:101270002068416981690091016841F400710AE0C8
:1012800041F40061016072B6206841698169009192
:10129000016821F48061016062B696E0032865D898
:1012A00001280CD002284B464FF000024146204650
:1012B00000960BD001F024F8A8BB0CE090E0324679
:1012C0004946204601F0C2F868BB71E001F018F809
:1012D00048BB72B633E02068016821F48061016088
:1012E00072B620680069616A0870606A401C6062BA
:1012F000208D401E2085608D401E60853C4846F252
:10130000A8110068B0FBF1F0C0EBC00000EB80005A
:101310000090401E009007D020684069C0434007FD
:101320000DD50098F5E727E044F8305F6773A573A3
:10133000206940F02000206162B625731CE020681F
:10134000016841F40071016020680069616A0870F9
:10135000606A401C6062218D491E2185618D491E95
:10136000618562B621680969017025E03246494607
:10137000204601F06BF810B10120BDE8F88F20681D
:101380000069616A0870606A401C6062208D401EBE
:1013900081B22185608D401E608520684269D243FC
:1013A000520712D4032903D1016821F4806101603E
:1013B00020680069616A0870606A401C6062208D64
:1013C000401E2085608D401E6085208D00287FF4A2
:1013D00065AF84F83D7084F83E5084F83C50CCE70B
:1013E0000220CAE7020010000000FFFF0400010015
:1013F0000C0000202DE9F84F1F4690468A4604460F
:10140000DDF82890FFF704FE054694F83D002028FB
:101410007FD11923012240492046009500F070FF3A
:10142000002876D194F83C00012872D0012084F87D
:101430003C0020680168C90703D1016841F001013F
:1014400001602068016821F400610160212084F8B6
:101450003D00102084F83E0000262664C4F8248055
:101460006785608D20852D48E0622B464A465146AF
:10147000204600F0CBFE90B9206841698069009059
:1014800036E02A464946204601F018F850B1206C53
:10149000042804D12068016841F400710160012032
:1014A000BDE8F88F606A216800780861606A401CB6
:1014B0006062618D491E6185218D491E89B2218539
:1014C00022685369DB435B070BD451B1007810618C
:1014D000606A401C6062608D401E6085208D401EE9
:1014E00020852A464946204600F0DEFE0028CED15F
:1014F000208D0028C5D154F83D0B016841F40071DE
:101500000160202004F81E09E67766770020C7E70F
:10151000FFE70220C4E70000020010000000FFFF08
:1015200010B586B0002100910191029103910068ED
:101530000F4988421AD10F4CA06940F00800A06101
:10154000A069694600F008000490C02000901220B5
:101550000190032003900848FFF750FCE06940F435
:101560000010E061E06900F40010049006B010BDC6
:101570000054004000100240000C01400248816805
:10158000027811448160704700000020074810B5C0
:10159000016841F010010160032000F075F80F2090
:1015A00000F006F800F024F8002010BD00200240F2
:1015B00070B50D4D04464FF47A712878B1FBF0F008
:1015C0000A490968B1FBF0F000F0DCFA48B9102CC8
:1015D00007D200222146501E00F036F800206C6031
:1015E00070BD012070BD0000000000200C00002034
:1015F0000C4808B5816941F001018161816901F000
:1016000001010091C16941F08051C161C06900F0E0
:10161000805000900448416821F0E06141F0007181
:10162000416008BD0010024000000140002809DBB5
:1016300000F01F02012191404009800000F1E020EC
:10164000C0F8001170470000F0B40E4B1B680C4648
:10165000C3F30223C3F10705042D00D90425191D86
:10166000072901D2002300E0DB1E012606FA05F15E
:10167000491E214099409E40761E16403143F0BCE1
:1016800001F040BC0CED00E0064900F007020868DC
:101690004FF6FF03184040EA0220034A1043086057
:1016A000704700000CED00E00000FA052DE9F0475E
:1016B0000F46050061D0434E306800F00700B84285
:1016C00009D2306820F0070038433060306800F0FD
:1016D0000700B84251D128683B4C810712D540071A
:1016E00003D5606840F4E06060602878000703D5A7
:1016F000606840F4605060606068A96820F0F000A5
:10170000084360602878C00728D06868012810D096
:101710002168022810D0890700292EDA616821F09B
:10172000030101436160FFF773FC804641F2883991
:101730000DE021688903EFE78901EDE7FFF768FC19
:10174000A0EB0801494502D90320BDE8F087606895
:10175000696800F00C00B0EB810FEFD1306800F049
:101760000700B8420BD9306820F0070038433060DA
:10177000306800F00700B84201D00120E5E7287882
:10178000400705D56068E96820F4E06008436060C0
:101790002878000706D56068296920F4605040EA7F
:1017A000C100606000F038F86168084AC1F30311B5
:1017B000515CC8400649086006480068FFF7F8FE1B
:1017C0000020C2E700200240001002406A380008F2
:1017D0000C00002004000020044805490068496806
:1017E000044AC1F30221515CC84070470C0000203C
:1017F000001002407A38000804480549006849682A
:10180000044AC1F3C221515CC84070470C0000205B
:10181000001002407A3800080E4A51680E4801F064
:101820000C03042B11D0082B0FD10C48C1F38343B8
:10183000C903C05C0AD55168084AC1F34041921EF1
:10184000515C054A5043B0FBF1F0704704494843EE
:10185000704700000010024000127A005A38000859
:1018600000093D002DE9F84F040070D02078C04DEC
:10187000C00749D06868C0F38100012807D06868B4
:10188000C0F38100022809D16868C00306D5286822
:10189000800339D560680028E7D035E06068B0F58E
:1018A000803F0BD010B1B0F5A02F11D0286820F4E4
:1018B00080302860286820F4802002E0286840F406
:1018C00080302860606890B1FFF7A2FB06460AE00E
:1018D000286840F480202860F0E700BFFFF798FBFD
:1018E000801B642873D828688003F7D50CE0FFF7C5
:1018F0008FFB064605E000BFFFF78AFB801B6428CC
:10190000F0D828688003F7D420789A4E80074FF0EB
:1019100001094FF0000839D5686810F00C0F07D0A6
:101920006868C0F38100022809D16868C00306D442
:101930002868800714D52069012808D110E02069A3
:10194000B0B1C6F80090FFF763FB074605E00AE177
:10195000FFF75EFBC01B0228C4D828688007F7D5B4
:101960002868616920F0F80040EAC10028600DE0B5
:10197000C6F80080FFF74CFB074604E0FFF748FB82
:10198000C01B022823D828688007F7D420780007D6
:101990002CD57948A169D9B1C0F80090FFF738FB80
:1019A000074604E0FFF734FBC01B02280FD8686A23
:1019B0008007F7D571484FF4FA510068B0FBF1F099
:1019C000009000BF0098411E0091FAD20EE080E026
:1019D000C0F80080FFF71CFB074604E0FFF718FB88
:1019E000C01B022875D8686A8007F7D420784007A2
:1019F00060D5E8690027C00008D4E86940F080504D
:101A0000E861E869012700F0805000905C480168B7
:101A1000C90513D40168834641F480710160FFF762
:101A2000F7FA824606E000BFFFF7F2FAA0EB0A00E1
:101A300064284ED8DBF80000C005F5D5E068012821
:101A40000AD008B1052813D0286A20F001002862C6
:101A5000286A20F0040002E0286A40F001002862B1
:101A6000E06841F2883B98B1FFF7D2FA82460BE07A
:101A7000286A40F004002862EEE700BFFFF7C8FACA
:101A8000A0EB0A0159455AD8286A8007F6D50CE020
:101A9000FFF7BEFA824605E0FFF7BAFAA0EB0A01AB
:101AA00059454CD8286A8007F6D41FB1E86920F060
:101AB0008050E861E06988B36968C1F38101022957
:101AC00044D00228C6F8608004D0FFF7A1FA04468B
:101AD00038E034E0FFF79CFA074604E0FFF798FA95
:101AE000C01B02282BD828688001F7D4206AB0F5E3
:101AF000803F05D16868A16820F400300843686021
:101B0000D4E908010843696821F474110843686046
:101B1000C6F86090FFF77CFA044606E025E000BFB7
:101B2000FFF776FA001B022809D828688001F7D54C
:101B30001BE000BFFFF76CFA001B022802D903204C
:101B4000BDE8F88F28688001F4D40EE00128F7D0B2
:101B50006868226A00F48031914204D1616A00F41D
:101B60007010884201D00120EAE70020E8E7000079
:101B70000010024000004242800442420C0000205B
:101B80000070004010B5401EB0F1807F01D30120ED
:101B900010BD4FF0E02460610F21601701F0B2F931
:101BA0000020A06107202061002010BD38B5044648
:101BB00090F84200202801D0022038BD51B14AB12E
:101BC0000120206300206063204601F001F9216BB1
:101BD000012901D0012038BD21680A6849680091B7
:101BE00021680C3151E8002F42F0100241E8002337
:101BF000002BF5D138BD000010B50068064A9042B0
:101C000008D1064800F032FFBDE8104040210348EB
:101C100000F024BF10BD0000003801401800002073
:101C200070470000F8B5016804460868CA684B6947
:101C300010F00F0F4FF0000559D003F0010602F429
:101C40009077374365D0C10705D0D10503D5616CC6
:101C500041F001016164410705D5D90703D0616CEA
:101C600041F002016164810705D5D90703D0616C99
:101C700041F004016164010707D502F020013143FE
:101C800003D0616C41F008016164616C00293AD0B5
:101C9000800604D5900602D5204600F0DBFF2068C0
:101CA0004069616CC0F38010090700D460B320461E
:101CB00000F09BFF20684069400621D52068143061
:101CC00050E8001F21F0400140E80012002AF5D141
:101CD000E06BA8B16D494163E06BFEF73FFE002861
:101CE00011D0E06B416B01B0BDE8F04008478306BE
:101CF0000FD593060DD52046BDE8F84000F0AABFE9
:101D00002046FFF78DFFF8BD2046FFF789FF656489
:101D1000F8BD266B2023012E7CD1C6067AD5D606C7
:101D200078D508684868009048694FF00206400678
:101D300040D5E16B086840680004000CE8D0A28D33
:101D40008242E5D9E085886920282DD020680C30B2
:101D500050E8001F21F4807140E80012002AF5D1FC
:101D60002068143050E8001F21F0010140E8001203
:101D7000002AF5D12068143050E8001F21F04001FE
:101D800040E80012002AF5D184F84230256320682B
:101D90000C3050E8001F21F0100140E80012002A2A
:101DA000F5D1E06BFEF7B6FD6663A08DE18D401ABC
:101DB00081B22AE0A08DE18D401A81B2E08D002829
:101DC000A6D00029A4D022680C3252E8000F20F4DB
:101DD000907042E80007002FF5D12068143050E8D9
:101DE000002F22F0010240E80027002FF5D184F8EF
:101DF0004230256320680C3050E8002F22F010029A
:101E000040E80023002BF5D166632046FFF7F4FE7F
:101E1000F8BDFFE705062BD5150629D594F8410036
:101E20002128F5D1A068B0F5805F01D12069B0B15B
:101E3000206A411C2162216800784860E08C401EC5
:101E40000004000CE084E3D12068C16821F0800127
:101E5000C1602068C16841F04001C160D8E7206AD4
:101E60000088C0F308004860206A801C2062E5E713
:101E70004006CDD55006CBD5CA68204622F0400298
:101E8000CA6084F8413000F031F9C1E7A12A0008A6
:101E900070B5040004D094F84100002510B106E0AC
:101EA000012070BD84F84050204600F023F8242023
:101EB00084F841002068C16821F40051C1602046C7
:101EC00000F02AFF2068016921F490410161206837
:101ED000416921F02A0141612068C16841F4005143
:101EE000C1606564202084F8410084F84200656385
:101EF000002070BDF0B585B0002406460094019422
:101F00000294039400682D49884255D12C48816978
:101F100041F480418161816901F4804104918169CA
:101F200041F0040181618069264D00F004000490B5
:101F30004FF4007000900220019003200390694646
:101F40002846FEF75BFF2815CDE9000469462846C0
:101F50000294FEF753FF1D4D1B48802701C510203A
:101F600091C51A4845F810496C61AC61EC61FEF707
:101F7000B5FE08B1FEF7CCFCB5636E62134D124896
:101F800044351430C5E90004C5E902472C614FF41B
:101F900000506C61C5E906402846FEF79FFE08B177
:101FA000FEF7B6FCF5630022114625206E62FFF7AE
:101FB0004BFB2520FFF73AFB05B0F0BD0038014090
:101FC000001002400008014044000240F4000020DC
:101FD000704770472DE9F843044690F84100984651
:101FE00016460D46202802D00220BDE8F88385B1B0
:101FF0007EB100206064212084F84100FFF708F8DA
:10200000A6848146E684A0682027B0F5805F02D0D0
:1020100003E00120E9E7206910B12E4600250EE01B
:1020200000260CE08021204600F01AFFA8B9C6B1B6
:1020300016F8010B21684860E08C401EE084E08CBB
:102040004B464FF00002CDF800800028EAD14FF057
:102050004001204600F004FF40B184F841700320A5
:10206000C3E735F8020BC0F30800E3E784F84170DA
:102070000020BAE770B5044690F84100202801D04E
:10208000022070BD49B342B32162A284E2840020E1
:102090006064212384F84130A56B114BAB62A56BC2
:1020A000104BEB62A56B104B2B63A36B5863256839
:1020B00013462A1DA06BFEF74FFE21686FF040000B
:1020C00008602068143050E8001F41F0800140E8AB
:1020D0000012002AF5D1002070BD012070BD000063
:1020E0009F2B0008E12B0008B12A000870477047B9
:1020F000FEE701684A69D24352050FD46FF480624B
:102100004A61002140F8301F202242738173026926
:1021100042F0040202610173012070470020704701
:102120002DE9F84F0446C06A1E4693460D462168C5
:102130000A6842F480620A60082807D0012805D0A6
:1021400010F5803F02D0206B112804D1206801686F
:1021500041F4807101604FF001195B46002249464D
:102160002046009600F0CCF84FF4007840B120688B
:102170000068C00501D5C4F840800320BDE8F88F91
:102180002069DFF884A0B0F5804F0FD006202168C9
:1021900000EAD51747F0F000086133465A460AF1C5
:1021A0000601204600F0F4F858BB03E0E8B240F026
:1021B00001001CE02168E8B2086133465A465146E6
:1021C000204600F0E5F8E0B9206841698169009196
:1021D000016841F4807101605B4600224946204657
:1021E000009600F08DF80028C1D147F0F100216879
:1021F000086133465A465146204600F0C9F8002887
:10220000BCD00120BAE7000002000100F8B5044686
:10221000C06A1E460D461746082807D0012805D07B
:1022200010F5803F02D0206B122804D1206801688D
:1022300041F480710160134600224FF001112046E5
:10224000009600F05DF840B120680068C00502D536
:102250004FF4007020640320F8BD2069B0F5804F72
:102260000ED00620216800EAD51040F0F000086189
:1022700033463A460B49204600F08AF878B902E026
:1022800005F0FE0000E0E8B2216808610549334628
:102290003A46891F204600F07BF80028DCD0012058
:1022A000F8BD00000800010070B516460D46044652
:1022B0001EE02046FFF71DFF08B1012070BD681C1D
:1022C00016D0FEF7A5FE801BA84200D885B920686D
:1022D0004069C04340070BD5002044F8300F20214F
:1022E0006173A073216941F0200121612073E4E74B
:1022F00020684069C0434007DBD4002070BD000067
:102300002DE9F047984617460D460446C1F30746A7
:10231000DDF820902AE000BFB8F1FF3F26D0FEF79D
:1023200077FEA0EB0901414502D8B8F1000F1DD19D
:102330002068012E16D0806925EA00000004000CF8
:1023400012D00020B84211D1002044F8300F2021D3
:102350006173A073216941F0200121612073012084
:10236000BDE8F0874069E7E70120EBE72068012E30
:102370000AD0806925EA00000004000C06D0002085
:10238000B842C9D00020EBE74069F3E70120F7E746
:102390002DE9F047984616460D4604464FF00009D1
:1023A0004FF0200AC1F3074723E020684069C0438B
:1023B000400515D42068016841F40071016021686E
:1023C0006FF480604861C4F8309084F83DA084F8D0
:1023D0003E90216C41F00401216484F83C9021E09E
:1023E000701C06D0FEF714FEA0EB0800B04203D824
:1023F00016B1012F1FD021E02068012F15D0806970
:1024000025EA00000004000C18D000BF44F8309FFB
:1024100084F80DA084F80E90216941F0200121611B
:1024200084F80C900120BDE8F087406925EA00009F
:102430000004000CEAD12068406901E0206880694E
:1024400025EA00000004000CAFD1ECE72DE9F041D3
:10245000002590460E460446202728E04069C043E8
:10246000C0060CD454F8301B6FF01000486144F8DB
:1024700010596777A577206A2062257714E0FEF768
:10248000C7FDA0EB0800B04200D886B920684069BB
:10249000C04340060BD544F8305F6773A5732069CD
:1024A00040F02000206125730120BDE8F081206804
:1024B0004169C9434906D1D40020F6E770B51646F4
:1024C0000D4604461EE02046FFF713FE08B101202A
:1024D00070BD681C16D0FEF79BFD801BA84200D87B
:1024E00085B920684069C04300060BD5002044F838
:1024F000300F20216173A073216941F02001216117
:102500002073E4E720684069C0430006DBD4002064
:1025100070BD3A2000F0E0B81CB5044606226946BA
:102520003B2000F0B9F800280BD1BDF8000040BAFC
:102530002080BDF8020040BA6080BDF8040040BAB7
:10254000A0801CBD1CB5044606226946432000F04D
:10255000A3F800280BD1BDF8000040BA2080BDF8D8
:10256000020040BA6080BDF8040040BAA0801CBDE3
:1025700038B5044602226946412000F08DF8002853
:1025800003D1BDF8000040BA208038BD10B54FF42B
:102590007A7001F031F94FF4FA7405E019A000F0F7
:1025A000A1FC204601F028F900F092F86828F5D146
:1025B00021A000F097FC00216B2000F03BF90721DF
:1025C000192000F037F906211A2000F033F9002114
:1025D0001C2000F02FF918211B2000F02BF90121FD
:1025E000382000F027F9A021372000F023F91AA0A5
:1025F00000F078FC21480178BDE8104020A000F0F0
:1026000071BC00004D505536303530206E6F74204F
:10261000666F756E642C20706C65617365206368ED
:1026200065636B2074686520636F6E6E65637469A3
:102630006F6E2E0D0A0000004D505536303530209B
:10264000666F756E64207375636365737366756C0E
:102650006C792E0D0A0000004D5055363035302073
:10266000696E697469616C697A6174696F6E2063FF
:102670006F6D706C6574652E0D0A000010000020EF
:102680004D5055363035305F494E545F464C4147CA
:102690003A2025640D0A000077B581B015460E4634
:1026A0004FF47A74012301AAD02108480094FEF760
:1026B000A1FE40B92B463246D02104480094FEF7D3
:1026C00071FD002800D0012004B070BD580000202A
:1026D000752000F001B8000011B583B000208DF81E
:1026E00004004FF47A74012303AAD021094800940E
:1026F000FEF780FE38B9012301AAD02105480094D5
:10270000FEF750FD10B1002004B010BD9DF804008C
:10271000FAE700005800002038B504466846FFF785
:1027200027FFBDF90000FDF7D7FD0449FDF796FD31
:102730000349FDF73BFD206038BD00000000AA43BF
:10274000B81E124210B51E4C86B02078002834D036
:10275000002020700090019002900390ADF81400CA
:1027600004906846FFF7D8FE02A8FFF7EBFE05A825
:10277000FFF7FEFE04A8FFF7CFFFBDF90430BDF957
:102780000220BDF900100FA000F0ACFBBDF90C3029
:10279000BDF90A20BDF9081013A000F0A3FB0498AE
:1027A000FDF7A3FD02460B4617A000F09BFB217826
:1027B0001AA000F097FBFFF7ACFE06B010BD0000BA
:1027C00010000020416363656C65726F6D65746510
:1027D000723A20583D25642C20593D25642C205AFE
:1027E0003D25640D0A0000004779726F73636F70B6
:1027F000653A20583D25642C20593D25642C205AEB
:102800003D25640D0A00000054656D7065726174A9
:102810007572653A20252E32660D0A004D505536E8
:102820003035305F494E545F464C41473A2025646D
:102830000D0A00001CB502238DF804004FF47A70D5
:102840008DF80510009001AAD0210348FEF7D2FDB3
:10285000002800D001201CBD580000200D4808B5FC
:10286000416941F0010141614069002200F001002D
:10287000009011460E20FEF7E7FE0E20FEF7D6FE72
:10288000002211460F20FEF7DFFEBDE808400F20B2
:10289000FEF7CCBE001002402DE9F04385B00024C5
:1028A00030480094019402940394816941F04001FE
:1028B0008161816901F040010491816941F08001E9
:1028C0008161816901F080010491816941F0040115
:1028D0008161816901F004010491816941F008017D
:1028E00081618069DFF8808000F008000490012297
:1028F00020214046FEF786FBDFF870900122202160
:102900004846FEF77FFB102001258DE8310069461F
:102910004046FEF773FA2026032703970096CDE979
:10292000015469464046FEF769FA8020009010483D
:10293000CDE9010469460F48FEF760FA0397009657
:10294000CDE9015469464846FEF758FA00220521B0
:102950001720FEF779FE1720FEF768FE05B0BDE8E8
:10296000F08300000010024000180140000C0140FC
:1029700000002110001C01400D4810B50B490160FA
:102980000C49416000214FF480428160C0E903128C
:1029900041618161C1610162FEF740FB002803D003
:1029A000BDE81040FDF7B4BF10BD0000005400406A
:1029B00058000020801A06000C4810B50A49016032
:1029C0004FF4E1314160002181600C22C160C0E917
:1029D00004128161C161FFF75BFA002803D0BDE8F2
:1029E0001040FDF795BF10BD00380140AC0000203D
:1029F000FEE7FEE770477047FEF7C0BD30B58FB009
:102A000028216846FDF7C7FB14210AA8FDF7C3FB80
:102A100001210804CDE9001000240294022504914C
:102A2000CDE907504FF4E01009906846FEF71AFF11
:102A300008B172B6FEE70F20CDE90A054FF48060B9
:102A4000CDE90C4002210AA80E94FEF72FFE0028C3
:102A500001D072B6FEE70FB030BD70470A4601469E
:102A60000148FFF7A3B80000AC00002070B50C4689
:102A700005460948FEF70AF80128FAD10648016818
:102A8000086820F00100086022462946BDE8704031
:102A90000248FFF7EFBA0000F4000020AC0000206D
:102AA00010B5406A0021C185C184FFF7B9F810BD97
:102AB00070B5446A2068406994F84110C0F3C010B2
:102AC0000025212904D118B1E584204600F0B4F88E
:102AD0002068406994F84210C0F38010222904D184
:102AE00018B1E585204600F080F8606C40F01000D9
:102AF00060642046FFF794F870BD10B50146406A47
:102B0000096809684FF0000289062ED4C285016861
:102B10000C3151E8003F23F4807341E80034002C6D
:102B2000F5D10168143151E8003F23F0010341E879
:102B30000034002CF5D10168143151E8003F23F036
:102B4000400341E80034002CF5D1202180F84210E8
:102B5000016B012909D101680C3151E8003F23F0D4
:102B6000100341E80034002CF5D14263016B0129C8
:102B700002D0FFF72DFA10BD818DFFF73DF810BD93
:102B800010B5406A01214163016B012902D0FFF7B2
:102B900020FA10BD818D4908FFF72EF810BD10B541
:102BA0000146406A09680968890616D40021C18473
:102BB0000168143151E8002F22F0800241E800231F
:102BC000002BF5D101680C3151E8002F42F0400292
:102BD00041E80023002BF5D110BDFFF787FA10BDA7
:102BE00010B5406AFFF783FA10BD01680C3151E857
:102BF000002F22F4907241E80023002BF5D10168E8
:102C0000143151E8002F22F0010241E80023002B8B
:102C1000F5D1016B012909D101680C3151E8002F70
:102C200022F0100241E80023002BF5D1202180F88A
:102C3000421000210163704701680C3151E8002FF8
:102C400022F0C00241E80023002BF5D1202180F8BA
:102C50004110704708B590F84210222901D0022097
:102C600008BD82684FF480539A4201D1016921B1B5
:102C7000816A9A421BD04AB10AE00268816A5268AE
:102C8000C2F308020A80816A891C08E0026972B1F5
:102C90000268526802F07F020A70816A491C8162F0
:102CA000C18D491E0904090CC18503D01BE00268CF
:102CB0005268F1E70168CA6822F02002CA60016820
:102CC000CA6822F48072CA6001684A6922F001026F
:102CD0004A61202180F8421000214163026B012AE1
:102CE00003D0FFF775F9002008BD016301680C31BE
:102CF00051E8002F22F0100241E80023002BF5D10B
:102D000001680A68D20602D50A6849680091818D77
:102D1000FEF772FFE7E7000070B50446006801693E
:102D2000E26821F44051114301612169A068084320
:102D3000616908432168CA6841F20C639A430243FF
:102D4000CA6020684169A26921F440711143416160
:102D50001E492068884202D1FEF74EFD01E0FEF7D1
:102D60003BFD00EBC00101EB0012606864218000B4
:102D7000B2FBF0F3B3FBF1F36FF018067343B2FB51
:102D8000F0F5B2FBF0F605EB8305322303EB0515F6
:102D9000B5FBF1F5B6FBF1F605F0F00505EB061510
:102DA000B2FBF0F6B2FBF0F0B0FBF1F06FF01802FE
:102DB000504306EB800003EB0010B0FBF1F02168FC
:102DC00000F00F002844886070BD0000003801400A
:102DD00038B5816204468285002013466064222251
:102DE00084F84220E56B1B4AAA62E56B1A4AEA6244
:102DF000E56B1A4A2A63E26B50630A462168E06B6E
:102E0000091DFDF7A9FF206801684068009020694E
:102E100048B120680C3050E8001F41F4807140E850
:102E20000012002AF5D12068143050E8001F41F04C
:102E3000010140E80012002AF5D12068143050E862
:102E4000001F41F0400140E80012002AF5D10020A7
:102E500038BD0000FB2A0008812B0008B12A0008B9
:102E60002DE9F843984617460D460446089E24E08F
:102E7000701C22D0FEF7CCF8A0EB0800B0421AD8A4
:102E8000CEB12068C168490717D5802D15D0402DD7
:102E900013D00168C94309070FD4016800254068B1
:102EA00000902046FFF7A1FE0820606484F840509F
:102EB0000120BDE8F8830320FBE72068006835EABD
:102EC000000004D00020B842D2D00020F1E7012059
:102ED000F9E700000148FEF7A5BE0000AC000020A5
:102EE000FEE700000FB4054B10B503A9044A029891
:102EF00000F0EAF810BC5DF814FB0000113800087F
:102F0000140000200907090E002804DB00F1E0206E
:102F100080F80014704700F00F0000F1E02080F806
:102F2000141D704702E008C8121F08C1002AFAD118
:102F300070477047002001E001C1121F002AFBD139
:102F4000704700002DE9FF5F82B00021DDE9043009
:102F5000020DDDF840B0034318D044F61050A2F241
:102F6000FF3242431514119801281FD0A5EB0B0026
:102F7000401C5FEA000A4FF000064E4FDFF8389120
:102F8000B046504615D5CAF1000413E0119801244B
:102F90004AA3012801D16FEA0B010298119AC0E9F6
:102FA0000031C0E9024206B0BDE8F09FCBF100005D
:102FB000DFE704460021404A491842EB0450CDE9BE
:102FC000001012E0E00707D032463B464046494633
:102FD000FDF7C3FA8046894632463B4610461946FD
:102FE000FDF7BBFA06460F466410002CEAD1DDE976
:102FF0000401DDE90023BAF1000F06DAFDF7ADFAAE
:1030000042464B46FDF7A9FA05E0FDF718FB42469C
:103010004B46FDF714FB04460E460022284BFDF7F5
:1030200095FB03D84FF0FF30014607E00022254B07
:1030300020463146FDF7EAF9FDF770FB102409E060
:10304000002C0ADB0A220023FDF778F9039B3032BB
:103050001A55641E50EA0102F2D1641C039AC4F1AD
:1030600011031444119A012A03D0012208430DD1FF
:103070000AE0084304D000204FF0110B119072E7D2
:10308000A3EB0B056D1E0DE05B4504DD4FF0000268
:1030900005F1010504E003DA4FF00002A5F1010596
:1030A000002AECD002981199C0E90231C0E900452C
:1030B00079E70000000014400000F03F30000000FD
:1030C0000000F0430000E03F2DE9FF4F95B09B4624
:1030D0008946064600250FE2252877D10024274699
:1030E000F84A0121059400E0044316F8013F203B13
:1030F00001FA03F01042F7D130782A2811D06FF08E
:103100002F033078A0F13002092A16D8059A44F02E
:10311000020402EB820203EB42021044761C05908B
:10312000EFE759F8042B0592002A03DA504244F4E1
:103130000054059044F00204761C30782E2816D1F5
:1031400016F8010F44F004042A280DD06FF02F0266
:103150003078A0F13003092B09D807EB870302EB85
:103160004303C718761CF3E759F8047B761C3078C4
:103170006C280FD006DC4C2817D068280DD06A28A0
:1031800014D104E0742810D07A280FD10DE044F453
:1031900000140AE044F4801401E044F4401472780E
:1031A000824202D104F58014761C761C30786628A1
:1031B0000BD013DC582877D009DC002875D04528BF
:1031C000F6D04628F4D047281AD19DE118E06328AC
:1031D00035D0642879D0652812D195E1702873D054
:1031E00008DC6728F1D069286FD06E280DD06F28D1
:1031F00006D1B5E073282CD0752875D0782874D006
:103200005A46179990476D1C75E1C4F30250022885
:1032100009D003280DD0D9F8001004280DD00D6076
:1032200009F1040967E1D9F80010EA17C1E9005271
:10323000F6E7D9F800100D80F2E70D70F0E719F805
:10324000041B8DF8001000208DF80100EA460120D3
:1032500003E059F804AB4FF0FF3061074FF0000175
:1032600002D40DE008F101018846B9420FDA804529
:10327000F8DB1AF808100029F4D108E008F1010180
:1032800088468142FADB1AF808100029F6D1059821
:103290005B46A0EB080721463846179A00F094FADF
:1032A000284400EB080507E04DE029E10DE01AF89D
:1032B000010B5A4617999047B8F10108F7D25B46BF
:1032C00021463846179A13E142E00A220092C4F3DD
:1032D00002524FF0000A022A08D059F804CB032A00
:1032E0004FEAEC710AD00DE029E02AE009F107016C
:1032F00021F00702F2E802C1914609E00FFA8CFCC6
:103300004FEAEC71042A03D14FFA8CFC4FEAEC71BE
:10331000002907DA0A460021DCF1000C61EB02010A
:103320002D2202E0220504D52B228DF80420012253
:1033300003E0E20701D02022F7E7904659E00A2196
:1033400002E010220DE010214FF0000A00910BE086
:1033500010224FF0000A44F004040827009203E012
:1033600008224FF0000A0092C4F30252022A05D04C
:1033700059F804CB0021032A08D009E009F107011C
:1033800021F00702F2E802C1914605E01FFA8CFC29
:10339000042A01D10CF0FF0C4FF00008220728D5B9
:1033A000702806D0009B83F0100353EA0A0305D06F
:1033B0000EE040228DF80420012208E05CEA0102C0
:1033C00006D030228DF804208DF8050002229046A8
:1033D000009B83F0080353EA0A030AD15CEA010266
:1033E00001D1620705D530228DF804204FF0010885
:1033F0007F1E582804D034A003900EA802900DE040
:1034000036A0F9E753466046009AFCF797FF8446DA
:103410000398825C0298401E029002705CEA0100F0
:10342000F0D1029806A9081A00F1200A600702D517
:1034300024F4803400E00127574502DDA7EB0A00A1
:1034400000E0002000EB0A01009005984144401A7A
:103450000590E00306D45B462146179A059800F0D4
:10346000B3F90544002706E001A85A46C05D179944
:1034700090476D1C7F1C4745F6DBE0030CD55B468F
:103480002146179A059800F09FF9054404E0302082
:103490005A46179990476D1C0099481E00900029C4
:1034A000F5DC08E0029802995A460078491C02911E
:1034B000179990476D1CBAF10001AAF1010AF1DCDD
:1034C00065E10000092801003031323334353637E8
:1034D0003839616263646566000000003031323360
:1034E0003435363738394142434445460000000000
:1034F00000F058F90544761C307800287FF4ECADD4
:1035000019B02846BDE8F08F620700D4062709F1FC
:10351000070222F0070CFCE80223E14603F0004812
:103520005FEA080C02D00FF2702C0DE05FEA045C39
:1035300002D50FF2682C07E05FEAC47C02D00FF2DC
:10354000602C01E0AFF2700C4FF0FF3823F0004325
:10355000CDF850C065280CD006DC452809D0462897
:103560001DD047283DD13DE0662818D067287ED180
:1035700038E00021112F01DB112000E0781CCDE99B
:10358000000106A90EA8FFF7DDFCDDE90F010E9A88
:1035900003910021009207F1010A04914DE04FF0E0
:1035A00000400097CDE9011006A90EA8FFF7CAFC5C
:1035B000DDE90F0203920E9B11990022DDF80CA0A9
:1035C0000093049211B9791C00EB010AB7EB0A00D1
:1035D00004D4C0F1FF3007F1010A0490AAEB070000
:1035E000019044E0012F00DA01270021112F01DDB5
:1035F000112000E03846CDE9000106A90EA8FFF72A
:10360000A1FCDDE90F010E9A0391002104910092C3
:10361000BA4621070CD40399514500DA8A46BAF11B
:10362000010F05DD009AAAF10101515C302908D093
:10363000B84202DA10F1040F06DA0121CDE90110D7
:1036400015E0AAF10101E9E7002805DC049901442D
:103650000491AAEB000102E0411C514500DD8A46BD
:103660000499401A401C01904FF00040029020073E
:1036700004D40198504501DBCDF8048000208DF87A
:103680004F0002980DF14F07B0F1004F25D02B20CD
:103690000E9002984FF0020800280CDA4042029087
:1036A0002D200E9007E00A210298FCF731FE303100
:1036B000029007F8011DB8F10001A8F10108F2DC41
:1036C00002980028EFD1791E0E980870307800F02B
:1036D000200040F0450007F8020D12A8C01B00F1C1
:1036E00007081498007800B1012000EB0A01019846
:1036F00001EBE07105984144401A401E0590E0033B
:1037000006D45B462146179A059800F05DF80544FB
:103710001498007818B15A46179990476D1CE00329
:1037200024D55B462146179A059800F04DF80544CC
:103730001CE00498002807DBDDE90301884203DD73
:103740000098405C179901E0179930205A4690473D
:10375000049805F10105401C04900198401E019059
:1037600004D12E205A46179990476D1CBAF10001DA
:10377000AAF1010ADDDC05E017F8010B5A4617999A
:1037800090476D1CB8F10001A8F10108F4DC5B461C
:103790002146179A0598ABE62D0000002B0000008B
:1037A000200000002DE9F041044600251E46174682
:1037B000880404D405E039462020B0476D1C641EFF
:1037C000F9D52846BDE8F0812DE9F04104460025F1
:1037D0001E469046C80301D5302700E02027880404
:1037E00004D505E041463846B0476D1C641EF9D546
:1037F0002846BDE8F081000070B50546FDF708FCDD
:103800004FEA0004FDF704FC001BA842FAD370BD88
:1038100013B54FF0FF33012269460248FEF7DAFB89
:1038200000981CBDAC000020FDF7B0FEFFF7E6F8E5
:10383000FDF758F8FFF730F8FFF710F8FFF7BCF87E
:10384000FFF79AF8FEF7A2FE4FF4FA74FEF77AFF3C
:103850002046FFF7D1FFF9E701020203040506073E
:1038600008090A0B0C0D0E0F1010000000000000DC
:10387000000001020304060708090000000001021D
:1038800003040000A4380008000000201800000015
:10389000242F0008BC38000818000020680500002C
:1038A000342F00080100000010000000000000009C
:0C38B00000127A00000000000000000080
:0400000508000131BD
:00000001FF
