:020000040800F2
:10000000F804002045010008C7150008CD110008BC
:10001000C5150008770200087B1A000800000000E0
:10002000000000000000000000000000E7170008CA
:100030007902000800000000E5170008E917000831
:100040005F0100085F0100085F0100085F01000810
:100050005F0100085F0100085F0100085F01000800
:100060005F0100085F0100085F0100085F010008F0
:100070005F0100085F0100085F0100085F010008E0
:100080005F0100085F0100085F0100085F010008D0
:100090005F0100085F0100085F0100085F010008C0
:1000A0005F0100085F0100085F0100085F010008B0
:1000B0005F0100085F0100085F0100085F010008A0
:1000C0005F0100085F0100085F0100085F01000890
:1000D0005F0100085F0100085F0100085F01000880
:1000E0005F0100085F0100085F0100085F01000870
:1000F0005F0100085F0100085F0100085F01000860
:100100005F0100085F0100085F0100085F0100084F
:100110005F0100085F0100085F0100085F0100083F
:100120005F0100085F0100085F0100085F0100082F
:10013000DFF80CD000F07EF800480047591F000897
:10014000F80400200648804706480047FEE7FEE71F
:10015000FEE7FEE7FEE7FEE7FEE7FEE7FEE7FEE777
:100160004B18000831010008202A04DB203A21FA4C
:1001700002F00021704721FA02F3D040C2F12002C0
:10018000914008431946704740EA01039B0703D09A
:1001900009E008C9121F08C0042AFAD203E011F8C6
:1001A000013B00F8013B521EF9D27047D2B201E088
:1001B00000F8012B491EFBD270470022F6E710B56C
:1001C00013460A4604461946FFF7F0FF204610BDC5
:1001D0002DE9F05F0546002092469B46884606467C
:1001E000814640241BE02846414647462246FFF709
:1001F000BBFF53465A46C01A914110D311461846C8
:10020000224600F029F82D1A67EB01084F462246D6
:100210000120002100F020F817EB00094E41201EBC
:10022000A4F10104DFDC484631462A464346BDE8D6
:10023000F09F0000064C074D06E0E06840F0010327
:1002400094E8070098471034AC42F6D3FFF774FFE8
:10025000D4270008F4270008202A04DB203A00FAFB
:1002600002F1002070479140C2F1200320FA03F30D
:10027000194390407047FEE7704700003C21014859
:1002800000F0A2BE6800002070B51B480068446AF8
:100290001AA0214601F0F2FB08231BA20021022034
:1002A00001F002FA6420B4FBF0F00A25B0FBF5F18E
:1002B00005FB11003030C2B208233B21022001F0BF
:1002C000B5F9B4FBF5F0B0FBF5F105FB11003030EA
:1002D000C2B208234221022001F0A8F9B4FBF5F0D4
:1002E00005FB1040BDE870403030C2B20823492100
:1002F000022001F09BB9000068000020636F756E5A
:10030000743A2025640D0A00636F756E743A00001C
:1003100072B6FEE72DE9F84FDFF8C8910024A9F185
:10032000040B23460F2709F1040AABF1040ED1E0B8
:100330000125A54006EA0502AA4276D1DFF8A8C148
:100340004E68A6EB0C0866452BD00DDC032E34D08E
:1003500005DC36B3012E19D0022E2FD11BE0112E51
:1003600016D0122E2AD119E0B8F5881F19D006DC54
:10037000B8F5803F15D0B8F5801F1FD111E0B8F552
:10038000001F0ED0B8F5041F18D10AE0CB6815E0A5
:10039000CB681B1D12E0CB6808330FE0CB680C3331
:1003A0000CE08B682BB1012B4FF0080303D04561A3
:1003B00004E0042302E0056100E00023FF2A01D8E5
:1003C000064601E000F104064FEA840501D9A5F1D3
:1003D0002005D6F8008007FA05FC28EA0C0803FA85
:1003E00005F548EA0508C6F800804D68ED0070D5AF
:1003F0003E4DAE6946F00106AE61AD6924F00306DC
:1004000005F0010500953A4D06EB050CDCF80850A7
:10041000A607360F07FA06F825EA0805DFF8D480A4
:10042000404503D14FF0000825E052E0DFF8C880D6
:10043000404502D14FF001081DE0DFF8C080404583
:1004400002D14FF0020816E0DFF8B480404502D137
:100450004FF003080FE0DFF8AC80404502D14FF0C9
:10046000040808E0DFF8A080404502D14FF00508FD
:1004700001E04FF0060808FA06F848EA0508CCF84B
:1004800008804D68D9F80060ED024D4601D516434D
:1004900000E096432E604D68DAF80060AD025546E4
:1004A00001D5164300E096432E604D68DBF80060EE
:1004B000AD035D4601D5164300E096432E604D68BE
:1004C000DEF80060ED03754601D5164300E0964363
:1004D0002E60641C0A681646E2407FF429AFBDE82E
:1004E000F88F0000080401400000111000100240C5
:1004F0000000014000080140000C014000100140D4
:100500000014014000180140001C014001488068AF
:10051000704700000000002070B5040025D094F85A
:100520003D00002520B984F83C50204600F04EF9EB
:10053000242084F83D002068016821F00101016059
:100540002068016841F4004101602068016821F4DD
:100550000041016000F088FA4D4A6168914201D87B
:100560004C4900E04C49884201D2012070BD4B4902
:100570002368B0FBF1F15E6826F03F060E435E6033
:100580006368934206D94FF4967359434FF47A73D4
:10059000B1FBF3F12368491C1E6A26F03F06314384
:1005A00019626168914210D84900401EB0FBF1F217
:1005B000521CC2F30B02042A01D2042022E0B0FB39
:1005C000F1F0401CC0F30B001CE0A268F2B301EB99
:1005D000C10303EB0116431EB3FBF6F35B1C43F4AC
:1005E00080431B0549D092B301EBC10202EB01111C
:1005F000401EB0FBF1F0401CC0F30B0040F4804003
:1006000040F400402168CA694CF6FF739A431043D6
:10061000C861D4E9071001432068026822F0C002D3
:1006200011430160D4E9030101432068826848F264
:10063000FF339A4311438160D4E9050108432168DF
:10064000CA6822F0FF021043C86001E00EE016E025
:100650002068016841F0010101602564202084F8D0
:100660003D00256384F83E50002070BD01EB41063B
:10067000431EB3FBF6F35B1CB3E70120C2E701EBBB
:100680004101401EB0FBF1F0401CC0F30B00B7E786
:10069000A086010080841E0000093D0040420F003A
:1006A0002DE9F84F1F4690468A460446DDF828900B
:1006B000FFF72CFF054694F83D0020287FD1192331
:1006C000012240492046009500F012FE002876D114
:1006D00094F83C00012872D0012084F83C00206886
:1006E0000168C90703D1016841F001010160206878
:1006F000016821F400610160212084F83D00102090
:1007000084F83E0000262664C4F824806785608D46
:1007100020852D48E0622B464A465146204600F08F
:100720006DFD90B9206841698069009036E02A46E5
:100730004946204600F082FE50B1206C042804D1C6
:100740002068016841F4007101600120BDE8F88F64
:10075000606A216800780861606A401C6062618D8F
:10076000491E6185218D491E89B221852268536900
:10077000DB435B070BD451B100781061606A401C09
:100780006062608D401E6085208D401E20852A4657
:100790004946204600F080FD0028CED1208D00285B
:1007A000C5D154F83D0B016841F40071016020206F
:1007B00004F81E09E67766770020C7E7FFE7022006
:1007C000C4E70000020010000000FFFF10B586B073
:1007D0000021009101910291039100680F49884224
:1007E0001AD10F4CA06940F00800A061A0696946C9
:1007F00000F008000490C020009012200190032017
:1008000003900848FFF786FDE06940F40010E061BE
:10081000E06900F40010049006B010BD00540040E0
:1008200000100240000C0140024881680278114427
:100830008160704700000020074810B5016841F052
:1008400010010160032000F067F80F2000F006F8A7
:1008500000F024F8002010BD0020024070B50D4DBE
:1008600004464FF47A712878B1FBF0F00A49096820
:10087000B1FBF0F000F0CEFA48B9102C07D20022FC
:100880002146501E00F028F800206C6070BD012049
:1008900070BD0000000000200C0000200C4808B5CE
:1008A000816941F001018161816901F001010091DB
:1008B000C16941F08051C161C06900F08050009071
:1008C0000448416821F0E06141F00071416008BDD9
:1008D0000010024000000140F0B40E4B1B680C46B3
:1008E000C3F30223C3F10705042D00D90425191D04
:1008F000072901D2002300E0DB1E012606FA05F1DC
:10090000491E214099409E40761E16403143F0BC5E
:1009100001F0C4B80CED00E0064900F007020868D9
:100920004FF6FF03184040EA0220034A10430860D4
:10093000704700000CED00E00000FA052DE9F047DB
:100940000F46050061D0434E306800F00700B84202
:1009500009D2306820F0070038433060306800F07A
:100960000700B84251D128683B4C810712D5400797
:1009700003D5606840F4E06060602878000703D524
:10098000606840F4605060606068A96820F0F00022
:10099000084360602878C00728D06868012810D014
:1009A0002168022810D0890700292EDA616821F019
:1009B000030101436160FFF7A9FD804641F28839D8
:1009C0000DE021688903EFE78901EDE7FFF79EFD60
:1009D000A0EB0801494502D90320BDE8F087606813
:1009E000696800F00C00B0EB810FEFD1306800F0C7
:1009F0000700B8420BD9306820F007003843306058
:100A0000306800F00700B84201D00120E5E72878FF
:100A1000400705D56068E96820F4E060084360603D
:100A20002878000706D56068296920F4605040EAFC
:100A3000C100606000F038F86168084AC1F3031132
:100A4000515CC8400649086006480068FFF706FF89
:100A50000020C2E70020024000100240BA27000830
:100A60000C00002004000020044805490068496883
:100A7000044AC1F30221515CC84070470C000020B9
:100A800000100240CA270008044805490068496868
:100A9000044AC1F3C221515CC84070470C000020D9
:100AA00000100240CA2700080E4A51680E4801F0A3
:100AB0000C03042B11D0082B0FD10C48C1F3834336
:100AC000C903C05C0AD55168084AC1F34041921E6F
:100AD000515C054A5043B0FBF1F07047044948436C
:100AE000704700000010024000127A00AA27000898
:100AF00000093D002DE9F84F040070D02078C04D6A
:100B0000C00749D06868C0F38100012807D0686831
:100B1000C0F38100022809D16868C00306D528689F
:100B2000800339D560680028E7D035E06068B0F50B
:100B3000803F0BD010B1B0F5A02F11D0286820F461
:100B400080302860286820F4802002E0286840F483
:100B500080302860606890B1FFF7D8FC06460AE054
:100B6000286840F480202860F0E700BFFFF7CEFC43
:100B7000801B642873D828688003F7D50CE0FFF742
:100B8000C5FC064605E000BFFFF7C0FC801B6428DB
:100B9000F0D828688003F7D420789A4E80074FF069
:100BA00001094FF0000839D5686810F00C0F07D024
:100BB0006868C0F38100022809D16868C00306D4C0
:100BC0002868800714D52069012808D110E0206921
:100BD000B0B1C6F80090FFF799FC074605E00AE1BE
:100BE000FFF794FCC01B0228C4D828688007F7D5FB
:100BF0002868616920F0F80040EAC10028600DE033
:100C0000C6F80080FFF782FC074604E0FFF77EFC91
:100C1000C01B022823D828688007F7D42078000753
:100C20002CD57948A169D9B1C0F80090FFF76EFCC6
:100C3000074604E0FFF76AFCC01B02280FD8686A69
:100C40008007F7D571484FF4FA510068B0FBF1F016
:100C5000009000BF0098411E0091FAD20EE080E0A3
:100C6000C0F80080FFF752FC074604E0FFF74EFC97
:100C7000C01B022875D8686A8007F7D4207840071F
:100C800060D5E8690027C00008D4E86940F08050CA
:100C9000E861E869012700F0805000905C48016835
:100CA000C90513D40168834641F480710160FFF7E0
:100CB0002DFC824606E000BFFFF728FCA0EB0A00EF
:100CC00064284ED8DBF80000C005F5D5E06801289F
:100CD0000AD008B1052813D0286A20F00100286244
:100CE000286A20F0040002E0286A40F0010028622F
:100CF000E06841F2883B98B1FFF708FC82460BE0C0
:100D0000286A40F004002862EEE700BFFFF7FEFB10
:100D1000A0EB0A0159455AD8286A8007F6D50CE09D
:100D2000FFF7F4FB824605E0FFF7F0FBA0EB0A01BA
:100D300059454CD8286A8007F6D41FB1E86920F0DD
:100D40008050E861E06988B36968C1F381010229D4
:100D500044D00228C6F8608004D0FFF7D7FB0446D1
:100D600038E034E0FFF7D2FB074604E0FFF7CEFBA4
:100D7000C01B02282BD828688001F7D4206AB0F560
:100D8000803F05D16868A16820F40030084368609E
:100D9000D4E908010843696821F4741108436860C4
:100DA000C6F86090FFF7B2FB044606E025E000BFFE
:100DB000FFF7ACFB001B022809D828688001F7D593
:100DC0001BE000BFFFF7A2FB001B022802D9032093
:100DD000BDE8F88F28688001F4D40EE00128F7D030
:100DE0006868226A00F48031914204D1616A00F49B
:100DF0007010884201D00120EAE70020E8E70000F7
:100E00000010024000004242800442420C000020D8
:100E10000070004010B5401EB0F1807F01D301206A
:100E200010BD4FF0E02460610F21601700F036FE26
:100E30000020A06107202061002010BD70B590F84F
:100E40003C20012A2CD0012480F83C40022280F86A
:100E50003D2003685A689D6822F070060A68324394
:100E60005A60104B02689A420ED00F4B9A420BD038
:100E7000B2F1804F08D00D4B9A4205D00C4B9A42EC
:100E800002D00C4B9A4204D1496825F080031943E3
:100E9000916080F83D40002180F83C10084670BD0C
:100EA000022070BD002C01400034014000040040CD
:100EB00000080040000C00402DE9F0410D46040000
:100EC00003D094F83D0018B108E00120BDE8F0819E
:100ED000002084F83C00204600F040F8022084F80E
:100EE0003D002068816844F2070291438160211D22
:100EF000206800F0ABFC226890689169166A2B6844
:100F0000AF69034340F20330814341EA0721A868F7
:100F1000EF6908434FF6FC418843E96840EA07203F
:100F2000014328692F6A000140EA073008436968D5
:100F30006D6926F0220646EA05152943936022686A
:100F4000906154F8460B0162012004F81F09E07516
:100F50002076E0762077A0750020B7E700B585B051
:100F60000021009101910291039100681249884289
:100F700020D11248816941F400618161816901F4E5
:100F800000610491816941F0400181618069694695
:100F900000F0400004904FF4206000900848FFF7F4
:100FA000B9F90848416821F0C00141F0E06141F021
:100FB000C001416005B000BD002C0140001002409E
:100FC000001801400000014070B590F83E600446F2
:100FD00090F83F5090F8423090F84320022021B121
:100FE00004290ED0012E1BD114E0012E18D1012BA3
:100FF00016D184F83E0084F84200012200212068C6
:1010000020E0012D0CD1012A0AD184F83F0084F898
:10101000430014E0012D03D1012B01D1012A01D09D
:10102000012070BD84F83E0084F83F0084F842003F
:1010300084F8430001220021206800F055FC0122C1
:101040000421206800F050FC2068016841F0010193
:101050000160002070BD70B5040004D094F8410018
:10106000002510B106E0012070BD84F840502046F4
:1010700000F024F8242084F841002068C16821F49D
:101080000051C160204600F063FC2068016921F432
:10109000904101612068416921F02A014161206885
:1010A000C16841F40051C1606564202084F84100AA
:1010B00084F842006563002070BD000030B585B043
:1010C0000024009401940294039400681449884217
:1010D00024D11448816941F480418161816901F41E
:1010E00080410491816941F00401816180690E4D64
:1010F00000F0040004904FF4007000900220019072
:101100000320039069462846FFF704F92815CDE926
:101110000004694628460294FFF7FCF805B030BD8C
:101120000038014000100240000801402DE9F8435A
:10113000044690F84100984616460D46202802D0F5
:101140000220BDE8F88385B17EB1002060642120D3
:1011500084F84100FFF7DAF9A6848146E684A068A6
:101160002027B0F5805F02D003E00120E9E7206985
:1011700010B12E4600250EE000260CE0802120460E
:1011800000F042FCA8B9C6B116F8010B216848600E
:10119000E08C401EE084E08C4B464FF00002CDF81E
:1011A00000800028EAD14FF04001204600F02CFCDE
:1011B00040B184F841700320C3E735F8020BC0F357
:1011C0000800E3E784F841700020BAE7FEE7016811
:1011D0004A69D24352050FD46FF480624A610021FC
:1011E00040F8301F202242738173026942F00402EA
:1011F000026101730120704700207047F8B5044672
:10120000C06A1E460D461746082807D0012805D09B
:1012100010F5803F02D0206B122804D120680168AD
:1012200041F480710160134600224FF00111204605
:10123000009600F05DF840B120680068C00502D556
:101240004FF4007020640320F8BD2069B0F5804F92
:101250000ED00620216800EAD51040F0F0000861A9
:1012600033463A460B49204600F08AF878B902E046
:1012700005F0FE0000E0E8B2216808610549334648
:101280003A46891F204600F07BF80028DCD0012078
:10129000F8BD00000800010070B516460D46044672
:1012A0001EE02046FFF793FF08B1012070BD681CC7
:1012B00016D0FFF72BF9801BA84200D885B920680B
:1012C0004069C04340070BD5002044F8300F20216F
:1012D0006173A073216941F0200121612073E4E76B
:1012E00020684069C0434007DBD4002070BD000087
:1012F0002DE9F047984617460D460446C1F30746C8
:10130000DDF820902AE000BFB8F1FF3F26D0FFF7BC
:10131000FDF8A0EB0901414502D8B8F1000F1DD13D
:101320002068012E16D0806925EA00000004000C18
:1013300012D00020B84211D1002044F8300F2021F3
:101340006173A073216941F02001216120730120A4
:10135000BDE8F0874069E7E70120EBE72068012E50
:101360000AD0806925EA00000004000C06D00020A5
:10137000B842C9D00020EBE74069F3E70120F7E766
:101380002DE9F047984616460D4604464FF00009F1
:101390004FF0200AC1F3074723E020684069C043AB
:1013A000400515D42068016841F40071016021688E
:1013B0006FF480604861C4F8309084F83DA084F8F0
:1013C0003E90216C41F00401216484F83C9021E0BE
:1013D000701C06D0FFF79AF8A0EB0800B04203D8C3
:1013E00016B1012F1FD021E02068012F15D0806990
:1013F00025EA00000004000C18D000BF44F8309F1C
:1014000084F80DA084F80E90216941F0200121613B
:1014100084F80C900120BDE8F087406925EA0000BF
:101420000004000CEAD12068406901E0206880696E
:1014300025EA00000004000CAFD1ECE770B51646B9
:101440000D4604461EE02046FFF7C1FE08B101200C
:1014500070BD681C16D0FFF759F8801BA84200D851
:1014600085B920684069C04300060BD5002044F8C8
:10147000300F20216173A073216941F020012161A7
:101480002073E4E720684069C0430006DBD40020F5
:1014900070BD0000114808B5816941F010018161FB
:1014A000816901F010010091816941F04001816181
:1014B000816901F040010091816941F0040181617D
:1014C000816901F004010091816941F008018161A5
:1014D000806900F00800009008BD00000010024084
:1014E0000D4810B50B4901600C49416000214FF4D3
:1014F00080428160C0E9031241618161C161016282
:10150000FFF70AF8002803D0BDE81040FEF700BF3F
:1015100010BD00000054004014000020801A060096
:1015200010B58CB024216846FEF747FE002416480B
:10153000099414490A9401600321C0E901144FF68B
:10154000FF72C0E903244461846100910120CDE968
:10155000014003940494CDE90540079469460A4884
:101560000894FFF7A9FC08B1FEF7D2FE099409A977
:1015700005480A94FFF762FC002801D0FEF7C8FE78
:101580000CB010BD002C0140680000200C4810B5C4
:101590000A4901604FF4E1314160002181600C2271
:1015A000C160C0E904128161C161FFF754FD0028E8
:1015B00003D0BDE81040FEF7ABBE10BD00380140BF
:1015C000B0000020FEE7FEE70020AFF3008010B57A
:1015D000A0B0044680216846FEF7EFFD2246802138
:1015E0006846FEF7E3FD00240021204600F00BF8DA
:1015F00080226946402000F06FF8641CE4B2082C99
:10160000F2D320B010BD08B5B0308DF80000102026
:1016100040EA11108DF8010001F00F008DF8020072
:1016200003226946002000F057F808BD2DE9F0417B
:101630000F460646A2F12005062B20D0082B1CD110
:10164000FFF7E1FF1648002400EB05154020295D57
:1016500000F092F8641CE4B2082CF7D3761CF0B2C8
:101660003946FFF7D0FF00242819017A402000F006
:1016700083F8641CE4B2082CF6D3BDE8F081FFF7D0
:10168000C2FF084905EB4500002401EB400540205E
:10169000295D00F071F8641CE4B2062CF7D3ECE786
:1016A000B82100087E1F00082DE9F0411E461546AE
:1016B0000F468046002409E004FB0670C1B23346A1
:1016C00040466D1CFFF7B2FF641CE4B22A78002A82
:1016D000F2D1BDE8F081000010B5C2B01446FF2A77
:1016E00002D911460CA012E08DF804000DF105009E
:1016F000FEF74AFD64200090601C83B201AA7821A5
:101700001248FEF7CDFF002804D0214610A000F0BB
:10171000B5F9012042B010BD6F6C65642077726925
:10172000746520627566666572206661696C6564C1
:101730003A206E756D203D20256C752069732074EC
:101740006F6F206C617267650D0A00001400002045
:101750006F6C656420777269746520627566666572
:1017600072206661696C65643A206E756D203D205B
:10177000256C750D0A0000007CB58DF80400054647
:1017800064200C468DF805100090022301AA7821F0
:101790000548FEF785FF002805D02246294603A00C
:1017A00000F06CF901207CBD140000206F6C6564B2
:1017B0002077726974652062797465206661696C4E
:1017C00065643A636D64203D2030782530325820BE
:1017D0002C2062797465203D203078253032580DF8
:1017E0000A00000070477047FFF71EB830B58FB091
:1017F00028216846FEF7E1FC14210AA8FEF7DDFC6B
:1018000001210804CDE9001000240294022504916E
:10181000CDE907504FF4E01009906846FFF76AF9E8
:1018200008B172B6FEE70F20CDE90A054FF48060DB
:10183000CDE90C4002210AA80E94FFF77FF800289A
:1018400001D072B6FEE70FB030BD7047F0B5026848
:10185000204C214D214E224F224B4FF0804CA04274
:1018600009D0984207D0604505D0A84203D0B042C5
:1018700001D0B84204D122F0700E4A6842EA0E024A
:10188000A04209D0984207D0604505D0A84203D0B5
:10189000B04201D0B84203D122F44075CA682A434D
:1018A0004D6922F080022A4302608A68C2620A6897
:1018B0008262A04201D0984201D1096901630121ED
:1018C00041610169C90703D0016921F0010101618A
:1018D000F0BD0000002C0140000400400008004062
:1018E000000C00400034014010B501F01F0301213D
:1018F000046A99408C430462016A9A401143016270
:1019000010BD01680C3151E8002F22F4907241E8BB
:101910000023002BF5D10168143151E8002F22F08B
:10192000010241E80023002BF5D1016B012909D107
:1019300001680C3151E8002F22F0100241E8002329
:10194000002BF5D1202180F842100021016370475F
:1019500070B5044600680169E26821F44051114302
:1019600001612169A0680843616908432168CA6868
:1019700041F20C639A430243CA6020684169A2693C
:1019800021F44071114341611E492068884202D10F
:10199000FFF77AF801E0FFF767F800EBC00101EB11
:1019A0000012606864218000B2FBF0F3B3FBF1F336
:1019B0006FF018067343B2FBF0F5B2FBF0F605EBDF
:1019C0008305322303EB0515B5FBF1F5B6FBF1F604
:1019D00005F0F00505EB0615B2FBF0F6B2FBF0F0F2
:1019E000B0FBF1F06FF01802504306EB800003EB00
:1019F0000010B0FBF1F0216800F00F00284488606F
:101A000070BD0000003801402DE9F84398461746A4
:101A10000D460446089E24E0701C22D0FEF776FD99
:101A2000A0EB0800B0421AD8CEB12068C1684907BF
:101A300017D5802D15D0402D13D00168C943090753
:101A40000FD401680025406800902046FFF759FF39
:101A50000820606484F840500120BDE8F88303202A
:101A6000FBE72068006835EA000004D00020B84297
:101A7000D2D00020F1E70120F9E7FEE70FB4054BD3
:101A800010B503A9044A029800F028F810BC5DF8CC
:101A900014FB0000411F0008100000200907090E78
:101AA000002804DB00F1E02080F80014704700F00B
:101AB0000F0000F1E02080F8141D704702E008C814
:101AC000121F08C1002AFAD170477047002001E0B8
:101AD00001C1121F002AFBD1704700002DE9FF4F02
:101AE0008DB00F460546002606E025280BD0DDE91F
:101AF0000F1290476D1C761C28780028F5D111B084
:101B00003046BDE8F08F0024A246A1460122EC49F0
:101B100000E0044315F8013F203B02FA03F00842BD
:101B2000F7D128782A2810D06FF02F022878A0F15A
:101B30003001092914D80AEB8A0102EB410144F073
:101B4000020400EB010A6D1CF0E701CF5FEA000A16
:101B500003D544F40054CAF1000A44F002046D1C99
:101B600028782E2817D115F8010F44F004042A28EC
:101B70000ED06FF02F022878A0F1300109290AD881
:101B800009EB890102EB410100EB01096D1CF2E751
:101B900057F8049B6D1C28786C280FD006DC4C2865
:101BA00017D068280DD06A2814D104E0742810D00A
:101BB0007A280FD10DE044F400140AE044F48014B4
:101BC00001E044F440146978814202D104F58014A4
:101BD0006D1C6D1C2A786E2A1FD00CDC632A31D054
:101BE00004DC002A8BD0582A11D1A3E0642A68D0E3
:101BF000692A0CD165E0732A2ED004DC6F2A73D0D9
:101C0000702A04D19BE0752A6FD0782A6ED01046D6
:101C1000DDE90F129047761C50E1C4F30250022810
:101C200006D0032809D0042801CF09D0066045E179
:101C300001CFF117C0E9006140E101CF06803DE12D
:101C400006703BE117F8040B8DF8000000208DF8BA
:101C50000100EB46012003E057F804BB4FF0FF30D2
:101C600061074FF0000102D40DE008F10101884640
:101C700049450FDA8045F8DB1BF808100029F4D13C
:101C800008E008F1010188468142FADB1BF80810E0
:101C90000029F6D1DDE90F23AAEB08008146214691
:101CA00000F036F9304400EB080604E0DDE90F12DD
:101CB0001BF8010B9047B8F10108F7D221464846BE
:101CC000F7E00A21C4F302534FF0000B0891022BF6
:101CD00004D001CFC117032B09D00AE0FF1D27F064
:101CE0000707F7E8020108E032E01FE020E000B259
:101CF000C117042B01D140B2C117031E71F10003BB
:101D000007DA4FF0000CD0EB0C006CEB01012D2337
:101D100002E0230504D52B238DF82430012303E0B2
:101D2000E30701D02023F7E7984658E00A2110E0A6
:101D300010210EE010204FF0000B08900CE0102155
:101D40004FF0000B44F004044FF00809089103E041
:101D500008214FF0000B0891C4F30253022B04D06A
:101D600001CF0021032B06D006E0FF1D27F0070757
:101D7000F7E8020103E080B2042B00D1C0B24FF0BB
:101D8000000823072BD5702A07D0DDF820C08CF07F
:101D9000100C5CEA0B0C05D00EE040238DF82430CB
:101DA000012308E050EA010306D030238DF82430E7
:101DB0008DF8252002239846DDF820C08CF0080C11
:101DC0005CEA0B0C0BD150EA010301D1630706D585
:101DD00030238DF824304FF00108A9F10109582A69
:101DE00004D038A20B9208AA0A920BE03AA2F9E7B3
:101DF0005B46089AFEF7ECF90B9B9B5C0A9A521E15
:101E00000A92137050EA0102F2D10A98ADEB000079
:101E100000F1200B600702D524F4803401E04FF07C
:101E20000109D94502DDA9EB0B0000E0002000EB21
:101E30000B0141440890AAEB010AE00306D4DDE956
:101E40000F232146504600F063F806444FF0000986
:101E500008E009A911F80900DDE90F12904709F11E
:101E60000109761CC145F4DBE0030CD5DDE90F2345
:101E70002146504600F04CF8064404E0DDE90F121C
:101E800030209047761C0899481E08900029F5DC00
:101E900008E00A980A990078491C0A91DDE90F12B6
:101EA0009047761CBBF10001ABF1010BF1DC214640
:101EB0005046DDE90F2300F019F806446D1C1BE6BF
:101EC0000928010030313233343536373839616210
:101ED00063646566000000003031323334353637D4
:101EE0003839414243444546000000002DE9F041A5
:101EF000044600251E461746880404D405E03946EA
:101F00002020B0476D1C641EF9D52846BDE8F0813D
:101F10002DE9F041044600251E469046C80301D530
:101F2000302700E02027880404D505E041463846E4
:101F3000B0476D1C641EF9D52846BDE8F08100004D
:101F400013B54FF0FF33012269460248FFF7EEF860
:101F500000981CBDB0000020FEF76EFCFFF746FCA9
:101F6000FFF798FAFFF7BCFAFFF7DAFAFFF70EFB74
:101F7000FEF784F9FFF728FBFEF786F9FCE700007F
:101F80000000000000004C400000000202020000BF
:101F9000207C28283E20006C4A7424000C523C7C93
:101FA0005270304C7A6C504000020000000000007B
:101FB000007C820000423C0000000018381018002D
:101FC00000001018100000C00000000008080808F9
:101FD0000808004000000000004030080600007CB7
:101FE00042427C000000447C0000006462524C00CD
:101FF0000064424A7C000010287C2000006C4C4C9D
:102000007000007C4A4A74000004641C0400007CD8
:102010004A527C00005C52523C00000048480000DC
:102020000000C800000000182824420000181818FA
:102030001800004224281800000462520C001864A2
:102040007A566C1840301C1C7000007C54545C2084
:10205000186442424224007C44442418007C5454B6
:102060004400007C14141C04384442426400007C88
:1020700010107C0000007C440000808080FC040084
:10208000007C08344000007C40404000704C7010E0
:102090007C00007C08103C00186442424438007CFC
:1020A00014140C0438446242C438007C14146C00CC
:1020B000004C4A52740004047C040404007C404038
:1020C0007C00000C30300C00003C143C1C0400442C
:1020D000283844000004780804000064544C44008C
:1020E0000000FE828000000608304000008082FE72
:1020F00000000001010101008080808080800001DB
:1021000001000000006058587040007E4848700090
:10211000007048484000007048487E400070686881
:10212000500000087C0C0C0000F0E8E8D808007EA5
:1021300008087000000878400000008080887A005D
:10214000007E1038480000007E400000784848704B
:10215000487008780808700000704848700008F857
:102160004848700000704848F000084870080800AF
:1021700000505868680000087C48480008784040D3
:1021800078400818202018000838283838080048F7
:10219000383848000098A06018080048685848007F
:1021A0000000007E8000000000FF000000807E0034
:1021B0000000000101020200000000000000000019
:1021C0000000000000000000000000F80000000017
:1021D000000000330000000000100C02100C020090
:1021E00000000000000000000040C07840C07800FF
:1021F00000043F04043F040000708888FC0830009D
:1022000000182020FF211E00F008F0806018000058
:1022100000310C031E211E0000F008887000000031
:102220001E21232C1927211000120E00000000008F
:102230000000000000000000000000E018040200A0
:10224000000000071820400000020418E000000011
:102250000040201807000000404080F0804040000F
:102260000202010F0102020000000000E000000075
:10227000000101010F010101000000000000000049
:10228000009070000000000000000000000000004E
:102290000001010101010100000000000000000038
:1022A000003030000000000000000000C0380400D2
:1022B000006018070000000000E010080810E000AF
:1022C000000F102020100F0000001010F800000078
:1022D000000020203F202000007008080808F000BF
:1022E00000302824222130000030080808887000BF
:1022F0000018202121221C000000804030F800003E
:1023000000060524243F242400F888888808080053
:102310000019202020110E0000E010888890000095
:10232000000F112020201F000018080888681800DE
:102330000000003E0100000000708808088870005E
:10234000001C222121221C0000F008080810E000D7
:102350000001122222110F00000000C0C000000086
:10236000000000303000000000000080000000008D
:10237000000000E000000000000080402010080085
:10238000000102040810200000404040404040008E
:102390000002020202020200000810204080000039
:1023A000002010080402010000704808088870002E
:1023B0000000003037000000C030C828E810E000FE
:1023C000071827282F2817000000C038E000000059
:1023D000203C23020227382008F8888888700000F3
:1023E000203F202020110E00C030080808083800C7
:1023F000071820202010080008F808080810E0003E
:10240000203F202020100F0008F88888E8081000DE
:10241000203F20202320180008F88888E8081000B2
:10242000203F200003000000C030080808380000EA
:1024300007182020221E020008F808000008F808EB
:10244000203F210101213F20000808F80808000072
:102450000020203F2020000000000808F8080800A5
:10246000C08080807F00000008F888C0281808001D
:10247000203F20012638200008F808000000000056
:10248000203F20202020300008F8F800F8F808004D
:10249000203F013E013F200008F830C00008F80846
:1024A000203F200007183F00E01008080810E00057
:1024B0000F10202020100F0008F808080808F0006E
:1024C000203F210101010000E01008080810E00091
:1024D0000F10282830504F0008F88888888870002E
:1024E000203F2000030C30200070880808083800C6
:1024F0000038202121221C00180808F808081800BC
:102500000000203F2000000008F808000008F8083C
:10251000001F202020201F000878880000C83808ED
:10252000000007380E01000008F800F800F8080065
:1025300000033E013E030000081868808068180808
:1025400020302C03032C30200838C800C83808007D
:102550000000203F2000000010080808C8380800CC
:102560002038262120201800000000FE0202020070
:102570000000007F40404000000438C00000000020
:10258000000000010638C00000020202FE00000048
:10259000004040407F0000000000040202040000F0
:1025A000000000000000000000000000000000002B
:1025B0008080808080808080000202040000000013
:1025C000000000000000000000008080800000008B
:1025D00000192424123F200010F000808000000029
:1025E000003F112020110E000000008080800000BC
:1025F000000E112020201100000080808090F0004B
:10260000001F202020103F200000808080800000DC
:10261000001F242424241700008080E090902000D4
:102620000020203F2020000000008080808080006B
:10263000006B94949493600010F000808080000000
:10264000203F210000203F200080989800000000DB
:102650000020203F2020000000000080989800000B
:1026600000C08080807F000010F00000808080002B
:10267000203F240629302000001010F80000000040
:102680000020203F2020000080808080808080000B
:10269000203F20003F20003F80800080808000009D
:1026A000203F210000203F2000008080808000002B
:1026B000001F202020201F0080800080800000005C
:1026C00080FF912020110E0000000080800080001B
:1026D000000E11202091FF8080808000808080008B
:1026E00020203F21200001000000808080808000A9
:1026F0000033242424241900008080E0808000001E
:102700000000001F2020100080800000008080005A
:10271000001F202020103F208080800080808000CB
:1027200000030C300C03000080800080800080805B
:10273000010E300C07380601008080800080800088
:102740000020310E2E3120008080800000808080AB
:1027500000818678180601000080808080808000DB
:102760000021302C222130000000000000FC020279
:1027700000000000013E404000000000FF0000009B
:1027800000000000FF0000000202FC00000000004A
:1027900040403E010000000000020102020402006D
:1027A000000000000000000001020203040506070B
:1027B00008090A0B0C0D0E0F10100000000000009D
:1027C00000000102030406070809000000000102DE
:1027D00003040000F427000800000020140000009B
:1027E000BC1A00080828000814000020E4040000B7
:1027F000CC1A0008010000001000000000000000DA
:0828000000127A000000000044
:0400000508000131BD
:00000001FF
