:020000040800F2
:1000000078050020450100084F1C00082D18000845
:100010004D1C000877020008D523000800000000EE
:10002000000000000000000000000000EB1E0008BF
:10003000E102000800000000E91E0008ED1E0008B3
:100040005F0100085F0100085F0100085F01000810
:100050005F0100085F0100085F0100085F01000800
:100060005F0100085F0100085F0100085F010008F0
:100070005F0100085F01000879020008850200089E
:100080005F0100085F0100085F0100085F010008D0
:100090005F0100085F0100085F0100085F010008C0
:1000A0005F0100085F0100085F0100085F010008B0
:1000B0005F0100085F0100085F0100085F010008A0
:1000C0005F0100085F0100085F0100085F01000890
:1000D0005F010008C92300085F0100085F010008F4
:1000E0005F0100085F0100085F0100085F01000870
:1000F0005F0100085F0100085F0100085F01000860
:100100005F0100085F0100085F0100085F0100084F
:100110005F0100085F0100085F0100085F0100083F
:100120005F0100085F0100085F0100085F0100082F
:10013000DFF80CD000F07EF800480047CD2800081A
:10014000780500200648804706480047FEE7FEE79E
:10015000FEE7FEE7FEE7FEE7FEE7FEE7FEE7FEE777
:100160004F1F000831010008202A04DB203A21FA41
:1001700002F00021704721FA02F3D040C2F12002C0
:10018000914008431946704740EA01039B0703D09A
:1001900009E008C9121F08C0042AFAD203E011F8C6
:1001A000013B00F8013B521EF9D27047D2B201E088
:1001B00000F8012B491EFBD270470022F6E710B56C
:1001C00013460A4604461946FFF7F0FF204610BDC5
:1001D0002DE9F05F0546002092469B46884606467C
:1001E000814640241BE02846414647462246FFF709
:1001F000BBFF53465A46C01A914110D311461846C8
:10020000224600F029F82D1A67EB01084F462246D6
:100210000120002100F020F817EB00094E41201EBC
:10022000A4F10104DFDC484631462A464346BDE8D6
:10023000F09F0000064C074D06E0E06840F0010327
:1002400094E8070098471034AC42F6D3FFF774FFE8
:100250006429000884290008202A04DB203A00FAD7
:1002600002F1002070479140C2F1200320FA03F30D
:10027000194390407047FEE7014800F0F3B80000D2
:10028000F0000020014800F0EDB80000340100202B
:1002900030B590F840500124AC40C56B6C600468E8
:1002A00063604368102B036803D099600068C260E4
:1002B00030BD9A600068C16030BD0000064801682A
:1002C00041F080710160054800214160016841F002
:1002D0000101016070470000FCED00E0001000E04B
:1002E000704772B6FEE710B590F82110002202297F
:1002F00005D00421816380F82020012010BD016811
:100300000B6823F00E030B6001680B6823F00103F8
:100310000B6090F84030C46B012101FA03F3636075
:1003200080F8211080F82020104610BD2DE9F05FE4
:1003300090F821100024022903D0042181630124B4
:1003400085E001680A6822F00E020A6001680A6806
:1003500022F001020A603F4E3E4FB215DFF8F4C0B2
:10036000DFF8F090DFF8ECA0DFF8E8B0DFF8E4E0C9
:100370000168783F13011502ACF1640CA9F1500932
:10038000AAF13C0AABF1280BAEF1140E4FF4801821
:10039000B14227D9B9420ED0614512D049451DD08E
:1003A000514518D0594518D0714501D1424615E044
:1003B000294EB14201D1012210E0274E1436B1423C
:1003C00001D110220AE0244E2836B14206D0224A3A
:1003D0003C32914201D11A4600E02A461E49091FCB
:1003E0000A602BE0B94213D0614517D0494522D0AD
:1003F00051451DD059451DD0714501D142461AE0E5
:10040000B14202D14FF0807215E0134EB14201D1DA
:10041000012210E0104E1436B14201D110220AE040
:100420000D4E2836B14206D00B4A3C32914201D1E2
:100430001A4600E02A46074980394A60012180F8BF
:100440002110002180F82010416B01B1884720461F
:10045000BDE8F09F800002400804024090F82100AF
:10046000704700002DE9F05FC16B0A6801680B68F6
:10047000046C4FF0040808FA04F8844D844E854F4C
:10048000DFF814C2DFF81492DFF814A2DFF814B218
:10049000DFF814E218EA020F65D05FEA437862D50C
:1004A0000A68920603D40A6822F004020A60DFF8A0
:1004B000F0814FF48062016808F1140813011402FE
:1004C000414524D9A9420DD0B1420FD0B9421AD02A
:1004D000614515D0494515D0514501D1120312E0AF
:1004E000594501D104220EE0714501D140220AE0B4
:1004F0006D4D1435A94206D06B4A2832914201D184
:100500001A4600E022466749091F0A6029E0A9420D
:1005100013D0B14215D0B94220D061451BD0494516
:100520001BD0514502D14FF4800217E0414502D162
:100530004FF0806212E0594501D104220EE071456E
:1005400001D140220AE0584D1435A94206D0564A3E
:100550002832914201D11A4600E022464B4908391F
:100560004A60C16A71E04FF0020808FA04F818EA1C
:10057000020F70D05FEA83786DD50A68920606D4C0
:100580000A6822F00A020A60012180F82110DFF8CF
:1005900010814FF40072016808F11408130114026D
:1005A000414524D9A9420DD0B1420FD0B9421AD049
:1005B000614515D0494515D0514501D1120312E0CE
:1005C000594501D102220EE0714501D120220AE0F5
:1005D000354D1435A94206D0334A2832914201D113
:1005E0001A4600E022462F49091F0A6029E0A94265
:1005F00013D0B14215D0B94220D061451BD0494536
:100600001BD0514502D14FF4001217E0414502D1F1
:100610004FF0007212E0594501D102220EE07145FF
:1006200001D120220AE0204D1435A94206D01E4AED
:100630002832914201D11A4600E022461349083976
:100640004A60002180F82010816A00291CD0BDE892
:10065000F05F0847FFE70825A540154214D01A07A8
:1006600012D50A6822F00E020A6090F84020C36B8F
:10067000012101FA02F25A60816380F82110002101
:1006800080F82010016BE0E7BDE8F09F0800024011
:100690001C0002403000024044000240580002406A
:1006A0006C000240080402401C04024030B560B1F6
:1006B0001A4B026814219A4209D2194B1344B3FB16
:1006C000F1F18900016417490AE0012030BD134BA4
:1006D0005B421344B3FBF1F1890001640F4908390F
:1006E000C163022180F82110136843F6F0718B4337
:1006F000F0E901142143D0E902452C432143046968
:100700002143446921438469214319431160002135
:100710004163012242770177084630BD0804024058
:10072000F8FFFDBF0000024070B5044690F82000BD
:10073000002501280CD0012084F8200094F82160C5
:100740000020012E06D084F820000225284670BD26
:10075000022070BD022684F82160A063206806682C
:1007600026F0010606602046FFF792FDE06A0028A9
:100770002068016802D041F00E0106E021F004017A
:1007800001602068016841F00A0101602068016889
:1007900041F001010160D9E72DE9F84FDFF8C89178
:1007A0000024A9F1040B23460F2709F1040AABF139
:1007B000040ED1E00125A54006EA0502AA4276D141
:1007C000DFF8A8C14E68A6EB0C0866452BD00DDCFF
:1007D000032E34D005DC36B3012E19D0022E2FD1D2
:1007E0001BE0112E16D0122E2AD119E0B8F5881F61
:1007F00019D006DCB8F5803F15D0B8F5801F1FD1A1
:1008000011E0B8F5001F0ED0B8F5041F18D10AE0AA
:10081000CB6815E0CB681B1D12E0CB6808330FE0F6
:10082000CB680C330CE08B682BB1012B4FF0080325
:1008300003D0456104E0042302E0056100E00023E9
:10084000FF2A01D8064601E000F104064FEA8405BC
:1008500001D9A5F12005D6F8008007FA05FC28EAA1
:100860000C0803FA05F548EA0508C6F800804D684B
:10087000ED0070D53E4DAE6946F00106AE61AD6942
:1008800024F0030605F0010500953A4D06EB050C32
:10089000DCF80850A607360F07FA06F825EA08051F
:1008A000DFF8D480404503D14FF0000825E052E046
:1008B000DFF8C880404502D14FF001081DE0DFF8A5
:1008C000C080404502D14FF0020816E0DFF8B48046
:1008D000404502D14FF003080FE0DFF8AC804045FF
:1008E00002D14FF0040808E0DFF8A080404502D1B3
:1008F0004FF0050801E04FF0060808FA06F848EA4C
:100900000508CCF808804D68D9F80060ED024D4626
:1009100001D5164300E096432E604D68DAF800607A
:10092000AD02554601D5164300E096432E604D6852
:10093000DBF80060AD035D4601D5164300E0964349
:100940002E604D68DEF80060ED03754601D5164354
:1009500000E096432E60641C0A681646E2407FF46D
:1009600029AFBDE8F88F0000080401400000111015
:10097000001002400000014000080140000C01404E
:10098000001001400014014000180140001C01400B
:100990000AB1016170470904FBE700000148806863
:1009A000704700000000002070B5040025D094F8C6
:1009B0003D00002520B984F83C50204600F04EF957
:1009C000242084F83D002068016821F001010160C5
:1009D0002068016841F4004101602068016821F449
:1009E0000041016000F096FA4D4A6168914201D8D9
:1009F0004C4900E04C49884201D2012070BD4B496E
:100A00002368B0FBF1F15E6826F03F060E435E609E
:100A10006368934206D94FF4967359434FF47A733F
:100A2000B1FBF3F12368491C1E6A26F03F063143EF
:100A300019626168914210D84900401EB0FBF1F282
:100A4000521CC2F30B02042A01D2042022E0B0FBA4
:100A5000F1F0401CC0F30B001CE0A268F2B301EB04
:100A6000C10303EB0116431EB3FBF6F35B1C43F417
:100A700080431B0549D092B301EBC10202EB011187
:100A8000401EB0FBF1F0401CC0F30B0040F480406E
:100A900040F400402168CA694CF6FF739A43104342
:100AA000C861D4E9071001432068026822F0C0023F
:100AB00011430160D4E9030101432068826848F2D0
:100AC000FF339A4311438160D4E90501084321684B
:100AD000CA6822F0FF021043C86001E00EE016E091
:100AE0002068016841F0010101602564202084F83C
:100AF0003D00256384F83E50002070BD01EB4106A7
:100B0000431EB3FBF6F35B1CB3E70120C2E701EB26
:100B10004101401EB0FBF1F0401CC0F30B00B7E7F1
:100B2000A086010080841E0000093D0040420F00A5
:100B30002DE9F84F1F4690468A460446DDF8289076
:100B4000FFF72CFF054694F83D0020287FD119239C
:100B5000012240492046009500F0FAFE002876D197
:100B600094F83C00012872D0012084F83C002068F1
:100B70000168C90703D1016841F0010101602068E3
:100B8000016821F400610160212084F83D001020FB
:100B900084F83E0000262664C4F824806785608DB2
:100BA00020852D48E0622B464A465146204600F0FB
:100BB00055FE90B9206841698069009036E02A4668
:100BC0004946204600F06AFF50B1206C042804D149
:100BD0002068016841F4007101600120BDE8F88FD0
:100BE000606A216800780861606A401C6062618DFB
:100BF000491E6185218D491E89B22185226853696C
:100C0000DB435B070BD451B100781061606A401C74
:100C10006062608D401E6085208D401E20852A46C2
:100C20004946204600F068FE0028CED1208D0028DD
:100C3000C5D154F83D0B016841F4007101602020DA
:100C400004F81E09E67766770020C7E7FFE7022071
:100C5000C4E70000020010000000FFFF10B586B0DE
:100C60000021009101910291039100680F4988428F
:100C70001AD10F4CA06940F00800A061A069694634
:100C800000F008000490C020009012200190032082
:100C900003900848FFF780FDE06940F40010E06130
:100CA000E06900F40010049006B010BD005400404C
:100CB00000100240000C0140024881680278114493
:100CC0008160704700000020074810B5016841F0BE
:100CD00010010160032000F075F80F2000F006F805
:100CE00000F024F8002010BD0020024070B50D4D2A
:100CF00004464FF47A712878B1FBF0F00A4909688C
:100D0000B1FBF0F000F0DCFA48B9102C07D2002259
:100D10002146501E00F036F800206C6070BD0120A6
:100D200070BD0000000000200C0000200C4808B539
:100D3000816941F001018161816901F00101009146
:100D4000C16941F08051C161C06900F080500090DC
:100D50000448416821F0E06141F00071416008BD44
:100D60000010024000000140002809DB00F01F02D3
:100D7000012191404009800000F1E020C0F80011FD
:100D800070470000F0B40E4B1B680C46C3F30223FF
:100D9000C3F10705042D00D90425191D072901D227
:100DA000002300E0DB1E012606FA05F1491E214062
:100DB00099409E40761E16403143F0BC01F01CBBAA
:100DC0000CED00E0064900F0070208684FF6FF034B
:100DD000184040EA0220034A1043086070470000B0
:100DE0000CED00E00000FA052DE9F0470F46050084
:100DF00061D0434E306800F00700B84209D2306835
:100E000020F0070038433060306800F00700B84237
:100E100051D128683B4C810712D5400703D5606843
:100E200040F4E06060602878000703D5606840F413
:100E3000605060606068A96820F0F000084360605E
:100E40002878C00728D06868012810D021680228B7
:100E500010D0890700292EDA616821F003010143CF
:100E60006160FFF79BFD804641F288390DE0216803
:100E70008903EFE78901EDE7FFF790FDA0EB08019B
:100E8000494502D90320BDE8F0876068696800F031
:100E90000C00B0EB810FEFD1306800F00700B842D2
:100EA0000BD9306820F0070038433060306800F01C
:100EB0000700B84201D00120E5E72878400705D5B2
:100EC0006068E96820F4E060084360602878000703
:100ED00006D56068296920F4605040EAC10060606E
:100EE00000F038F86168084AC1F30311515CC8404A
:100EF0000649086006480068FFF7F8FE0020C2E7D0
:100F000000200240001002404A2900080C00002086
:100F1000040000200448054900684968044AC1F3F8
:100F20000221515CC84070470C00002000100240B4
:100F30005A2900080448054900684968044AC1F371
:100F4000C221515CC84070470C00002000100240D4
:100F50005A2900080E4A51680E4801F00C03042B70
:100F600011D0082B0FD10C48C1F38343C903C05CD7
:100F70000AD55168084AC1F34041921E515C054AA6
:100F80005043B0FBF1F070470449484370470000FC
:100F90000010024000127A003A29000800093D00C2
:100FA0002DE9F84F040070D02078C04DC00749D01B
:100FB0006868C0F38100012807D06868C0F3810029
:100FC000022809D16868C00306D52868800339D58E
:100FD00060680028E7D035E06068B0F5803F0BD04E
:100FE00010B1B0F5A02F11D0286820F4803028600F
:100FF000286820F4802002E0286840F480302860CF
:10100000606890B1FFF7CAFC06460AE0286840F421
:1010100080202860F0E700BFFFF7C0FC801B642839
:1010200073D828688003F7D50CE0FFF7B7FC0646B5
:1010300005E000BFFFF7B2FC801B6428F0D82868E9
:101040008003F7D420789A4E80074FF001094FF0C3
:10105000000839D5686810F00C0F07D06868C0F335
:101060008100022809D16868C00306D42868800777
:1010700014D52069012808D110E02069B0B1C6F864
:101080000090FFF78BFC074605E00AE1FFF786FCBE
:10109000C01B0228C4D828688007F7D52868616972
:1010A00020F0F80040EAC10028600DE0C6F800809A
:1010B000FFF774FC074604E0FFF770FCC01B022832
:1010C00023D828688007F7D4207800072CD57948E2
:1010D000A169D9B1C0F80090FFF760FC074604E0B1
:1010E000FFF75CFCC01B02280FD8686A8007F7D5A1
:1010F00071484FF4FA510068B0FBF1F0009000BF66
:101100000098411E0091FAD20EE080E0C0F8008005
:10111000FFF744FC074604E0FFF740FCC01B022831
:1011200075D8686A8007F7D42078400760D5E869E9
:101130000027C00008D4E86940F08050E861E86901
:10114000012700F0805000905C480168C90513D465
:101150000168834641F480710160FFF71FFC8246FD
:1011600006E000BFFFF71AFCA0EB0A0064284ED887
:10117000DBF80000C005F5D5E06801280AD008B109
:10118000052813D0286A20F001002862286A20F080
:10119000040002E0286A40F001002862E06841F2A1
:1011A000883B98B1FFF7FAFB82460BE0286A40F0D3
:1011B00004002862EEE700BFFFF7F0FBA0EB0A0196
:1011C00059455AD8286A8007F6D50CE0FFF7E6FBA8
:1011D000824605E0FFF7E2FBA0EB0A0159454CD837
:1011E000286A8007F6D41FB1E86920F08050E861D2
:1011F000E06988B36968C1F38101022944D00228FB
:10120000C6F8608004D0FFF7C9FB044638E034E03C
:10121000FFF7C4FB074604E0FFF7C0FBC01B022832
:101220002BD828688001F7D4206AB0F5803F05D11B
:101230006868A16820F4003008436860D4E90801B8
:101240000843696821F4741108436860C6F8609027
:10125000FFF7A4FB044606E025E000BFFFF79EFB76
:10126000001B022809D828688001F7D51BE000BFC1
:10127000FFF794FB001B022802D90320BDE8F88F7A
:1012800028688001F4D40EE00128F7D06868226A4B
:1012900000F48031914204D1616A00F470108842F8
:1012A00001D00120EAE70020E8E70000001002403A
:1012B00000004242800442420C00002000700040C6
:1012C00010B5401EB0F1807F01D3012010BD4FF05A
:1012D000E02460610F21601701F08EF80020A0610A
:1012E00007202061002010BD38B5044690F8420068
:1012F000202801D0022038BD51B14AB1012020631D
:1013000000206063204600F0DDFF216B012901D041
:10131000012038BD21680A684968009121680C31B4
:1013200051E8002F42F0100241E80023002BF5D1D4
:1013300038BD000010B50068064A904208D1064842
:1013400000F00EFEBDE810404021034800F000BE52
:1013500010BD00000038014014000020704700005C
:10136000F8B5016804460868CA684B6910F00F0FA9
:101370004FF0000559D003F0010602F4907737438F
:1013800065D0C10705D0D10503D5616C41F00101DD
:101390006164410705D5D90703D0616C41F00201B2
:1013A0006164810705D5D90703D0616C41F0040160
:1013B0006164010707D502F02001314303D0616C5D
:1013C00041F008016164616C00293AD0800604D5BF
:1013D000900602D5204600F0B7FE20684069616C97
:1013E000C0F38010090700D460B3204600F077FEF8
:1013F00020684069400621D52068143050E8001F5D
:1014000021F0400140E80012002AF5D1E06BA8B1BC
:101410006D494163E06BFEF789FF002811D0E06B56
:10142000416B01B0BDE8F040084783060FD5930635
:101430000DD52046BDE8F84000F086BE2046FFF7F7
:101440008DFFF8BD2046FFF789FF6564F8BD266B68
:101450002023012E7CD1C6067AD5D60678D5086819
:101460004868009048694FF00206400640D5E16B9D
:10147000086840680004000CE8D0A28D8242E5D9DB
:10148000E085886920282DD020680C3050E8001FA6
:1014900021F4807140E80012002AF5D12068143050
:1014A00050E8001F21F0010140E80012002AF5D1A8
:1014B0002068143050E8001F21F0400140E800127D
:1014C000002AF5D184F84230256320680C3050E8BA
:1014D000001F21F0100140E80012002AF5D1E06B56
:1014E000FEF701FF6663A08DE18D401A81B22AE00C
:1014F000A08DE18D401A81B2E08D0028A6D0002990
:10150000A4D022680C3252E8000F20F4907042E818
:101510000007002FF5D12068143050E8002F22F08A
:10152000010240E80027002FF5D184F842302563FE
:1015300020680C3050E8002F22F0100240E8002311
:10154000002BF5D166632046FFF7F4FEF8BDFFE7F8
:1015500005062BD5150629D594F841002128F5D18B
:10156000A068B0F5805F01D12069B0B1206A411C4C
:101570002162216800784860E08C401E0004000C65
:10158000E084E3D12068C16821F08001C160206857
:10159000C16841F04001C160D8E7206A0088C0F30B
:1015A00008004860206A801C2062E5E74006CDD52F
:1015B0005006CBD5CA68204622F04002CA6084F8A3
:1015C000413000F031F9C1E7951F000870B5040003
:1015D00004D094F84100002510B106E0012070BD50
:1015E00084F84050204600F023F8242084F841007D
:1015F0002068C16821F40051C160204600F006FE59
:101600002068016921F4904101612068416921F05D
:101610002A0141612068C16841F40051C1606564DC
:10162000202084F8410084F842006563002070BDEA
:10163000F0B585B00024064600940194029403940A
:1016400000682D49884255D12C48816941F4804178
:101650008161816901F480410491816941F0040153
:1016600081618069264D00F0040004904FF4007001
:101670000090022001900320039069462846FFF75E
:101680008BF82815CDE90004694628460294FFF737
:1016900083F81D4D1B48802701C5102091C51A48AD
:1016A00045F810496C61AC61EC61FEF7FFFF08B1D1
:1016B000FEF717FEB5636E62134D124844351430C1
:1016C000C5E90004C5E902472C614FF400506C6184
:1016D000C5E906402846FEF7E9FF08B1FEF701FE1E
:1016E000F5630022114625206E62FFF74BFB252093
:1016F000FFF73AFB05B0F0BD003801400010024092
:101700000008014044000240F0000020704770478C
:101710002DE9F843044690F84100984616460D46D8
:10172000202802D00220BDE8F88385B17EB10020D8
:101730006064212084F84100FFF730F9A6848146D7
:10174000E684A0682027B0F5805F02D003E0012086
:10175000E9E7206910B12E4600250EE000260CE0D6
:101760008021204600F0F6FDA8B9C6B116F8010B9D
:1017700021684860E08C401EE084E08C4B464FF0CE
:101780000002CDF800800028EAD14FF04001204649
:1017900000F0E0FD40B184F841700320C3E735F864
:1017A000020BC0F30800E3E784F841700020BAE7B9
:1017B00070B5044690F84100202801D0022070BD89
:1017C00049B342B32162A284E284002060642123F1
:1017D00084F84130A56B114BAB62A56B104BEB62EB
:1017E000A56B104B2B63A36B5863256813462A1D0A
:1017F000A06BFEF799FF21686FF040000860206839
:10180000143050E8001F41F0800140E80012002A27
:10181000F5D1002070BD012070BD000093200008AC
:10182000D5200008A51F000870477047FEE7016833
:101830004A69D24352050FD46FF480624A61002195
:1018400040F8301F202242738173026942F0040283
:10185000026101730120704700207047F8B504460B
:10186000C06A1E460D461746082807D0012805D035
:1018700010F5803F02D0206B122804D12068016847
:1018800041F480710160134600224FF0011120469F
:10189000009600F05DF840B120680068C00502D5F0
:1018A0004FF4007020640320F8BD2069B0F5804F2C
:1018B0000ED00620216800EAD51040F0F000086143
:1018C00033463A460B49204600F08AF878B902E0E0
:1018D00005F0FE0000E0E8B22168086105493346E2
:1018E0003A46891F204600F07BF80028DCD0012012
:1018F000F8BD00000800010070B516460D4604460C
:101900001EE02046FFF793FF08B1012070BD681C60
:1019100016D0FFF743F8801BA84200D885B920688D
:101920004069C04340070BD5002044F8300F202108
:101930006173A073216941F0200121612073E4E704
:1019400020684069C0434007DBD4002070BD000020
:101950002DE9F047984617460D460446C1F3074661
:10196000DDF820902AE000BFB8F1FF3F26D0FFF756
:1019700015F8A0EB0901414502D8B8F1000F1DD1BF
:101980002068012E16D0806925EA00000004000CB2
:1019900012D00020B84211D1002044F8300F20218D
:1019A0006173A073216941F020012161207301203E
:1019B000BDE8F0874069E7E70120EBE72068012EEA
:1019C0000AD0806925EA00000004000C06D000203F
:1019D000B842C9D00020EBE74069F3E70120F7E700
:1019E0002DE9F047984616460D4604464FF000098B
:1019F0004FF0200AC1F3074723E020684069C04345
:101A0000400515D42068016841F400710160216827
:101A10006FF480604861C4F8309084F83DA084F889
:101A20003E90216C41F00401216484F83C9021E057
:101A3000701C06D0FEF7B2FFA0EB0800B04203D83E
:101A400016B1012F1FD021E02068012F15D0806929
:101A500025EA00000004000C18D000BF44F8309FB5
:101A600084F80DA084F80E90216941F020012161D5
:101A700084F80C900120BDE8F087406925EA000059
:101A80000004000CEAD12068406901E02068806908
:101A900025EA00000004000CAFD1ECE770B5164653
:101AA0000D4604461EE02046FFF7C1FE08B10120A6
:101AB00070BD681C16D0FEF771FF801BA84200D8CD
:101AC00085B920684069C04300060BD5002044F862
:101AD000300F20216173A073216941F02001216141
:101AE0002073E4E720684069C0430006DBD400208F
:101AF00070BD00000D4808B5416941F00101416128
:101B00004069002200F00100009011460E20FFF70E
:101B100039F90E20FFF728F9002211460F20FFF7B0
:101B200031F9BDE808400F20FFF71EB90010024050
:101B30002DE9F04385B000242348009401940294D9
:101B40000394816941F040018161816901F04001A4
:101B50000491816941F004018161816901F004010E
:101B60000491816941F0080181618069DFF85C803E
:101B700000F008000490012220214046FEF708FFF3
:101B8000DFF84C90012220214846FEF701FF10208B
:101B900001258DE8310069464046FEF7FDFD20260F
:101BA000032703970096CDE9015469464046FEF7A6
:101BB000F3FD03970096CDE9015469464846FEF7C8
:101BC000EBFD05B0BDE8F0830010024000180140B5
:101BD000000C01400D4810B50B4901600C494160F3
:101BE00000214FF480428160C0E9031241618161AC
:101BF000C1610162FEF7D8FE002803D0BDE81040A5
:101C0000FEF76FBB10BD00000054004054000020E0
:101C1000801A06000C4810B50A4901604FF4E13102
:101C20004160002181600C22C160C0E90412816121
:101C3000C161FFF7CBFC002803D0BDE81040FEF7E0
:101C400050BB10BD00380140A8000020FEE7FEE7B1
:101C50001CB500218DF8041064210091410000237F
:101C600001AA0348FEF764FF002800D001201CBD34
:101C70005400002010B5A0B0044680216846FEF74D
:101C80009CFA224680216846FEF790FA0024002143
:101C9000204600F08FF880226946402000F09EF830
:101CA000641CE4B2082CF2D320B010BDFF20FFF773
:101CB000E1BF10B5642000F0F1FD3C20FFF7C8FF44
:101CC0000028FAD1AF2100F0D9F82021002000F03F
:101CD000D5F80221002000F0D1F8B021002000F05A
:101CE000CDF8A121002000F0C9F8C821002000F0A3
:101CF000C5F80021084600F0C1F81021002000F0CE
:101D0000BDF84021002000F0B9F80121002000F0CA
:101D1000B5F87F21002000F0B1F8A121002000F0EB
:101D2000ADF8A621002000F0A9F8A821002000F0BD
:101D3000A5F83F21002000F0A1F8A421002000F028
:101D40009DF8D321002000F099F80021084600F00A
:101D500095F8D521002000F091F8F021002000F046
:101D60008DF8D921002000F089F82221002000F010
:101D700085F8DA21002000F081F81221002000F01F
:101D80007DF8DB21002000F079F82021002000F010
:101D900075F88D21002000F071F81421002000F06A
:101DA0006DF8AF21002000F069F8BDE81040002078
:101DB000FFF760BF08B5B0308DF80000102040EA92
:101DC00011108DF8010001F00F008DF802000322C0
:101DD0006946002000F002F808BD000010B5C2B04E
:101DE0001446FF2A02D911460CA012E08DF8040017
:101DF0000DF10500FEF7C8F964200090601C83B265
:101E000001AA78211248FEF793FE002804D021464B
:101E100010A000F0E1FA012042B010BD6F6C6564C3
:101E200020777269746520627566666572206661E6
:101E3000696C65643A206E756D203D20256C7520B7
:101E4000697320746F6F206C617267650D0A000002
:101E5000540000206F6C656420777269746520629D
:101E60007566666572206661696C65643A206E7598
:101E70006D203D20256C750D0A0000007CB58DF8A5
:101E80000400054664200C468DF8051000900223DE
:101E900001AA78210548FEF74BFE002805D022460E
:101EA000294603A000F098FA01207CBD54000020D0
:101EB0006F6C65642077726974652062797465203F
:101EC0006661696C65643A636D64203D20307825F5
:101ED000303258202C2062797465203D20307825DE
:101EE0003032580D0A00000070477047FEF7E4BE1C
:101EF00030B58FB028216846FEF75FF914210AA893
:101F0000FEF75BF901210804CDE9001000240294DA
:101F100002250491CDE907504FF4E010099068467E
:101F2000FFF73EF808B172B6FEE70F20CDE90A05CB
:101F30004FF48060CDE90C4002210AA80E94FEF710
:101F400053FF002801D072B6FEE70FB030BD7047D6
:101F50000A4601460148FFF7C7B90000A800002063
:101F600070B50C4605460948FEF778FA0128FAD103
:101F700006480168086820F00100086022462946EA
:101F8000BDE870400248FFF713BC0000F0000020DD
:101F9000A800002010B5406A0021C185C184FFF768
:101FA000DDF910BD70B5446A2068406994F84110AD
:101FB000C0F3C0100025212904D118B1E5842046C2
:101FC00000F0B4F82068406994F84210C0F3801023
:101FD000222904D118B1E585204600F080F8606C14
:101FE00040F0100060642046FFF7B8F970BD10B5EE
:101FF0000146406A096809684FF0000289062ED43C
:10200000C28501680C3151E8003F23F4807341E838
:102010000034002CF5D10168143151E8003F23F061
:10202000010341E80034002CF5D10168143151E876
:10203000003F23F0400341E80034002CF5D120217B
:1020400080F84210016B012909D101680C3151E877
:10205000003F23F0100341E80034002CF5D1426327
:10206000016B012902D0FFF751FB10BD818DFFF7F5
:1020700061F910BD10B5406A01214163016B01296E
:1020800002D0FFF744FB10BD818D4908FFF752F9DC
:1020900010BD10B50146406A09680968890616D462
:1020A0000021C1840168143151E8002F22F0800220
:1020B00041E80023002BF5D101680C3151E8002FD5
:1020C00042F0400241E80023002BF5D110BDFFF79C
:1020D000ABFB10BD10B5406AFFF7A7FB10BD016850
:1020E0000C3151E8002F22F4907241E80023002BBC
:1020F000F5D10168143151E8002F22F0010241E8C6
:102100000023002BF5D1016B012909D101680C31A5
:1021100051E8002F22F0100241E80023002BF5D1F6
:10212000202180F8421000210163704701680C31C2
:1021300051E8002F22F0C00241E80023002BF5D126
:10214000202180F84110704708B590F842102229EC
:1021500001D0022008BD82684FF480539A4201D119
:10216000016921B1816A9A421BD04AB10AE0026832
:10217000816A5268C2F308020A80816A891C08E0F9
:10218000026972B10268526802F07F020A70816AC5
:10219000491C8162C18D491E0904090CC18503D007
:1021A0001BE002685268F1E70168CA6822F0200269
:1021B000CA600168CA6822F48072CA6001684A690C
:1021C00022F001024A61202180F84210002141637F
:1021D000026B012A03D0FFF799FA002008BD0163C2
:1021E00001680C3151E8002F22F0100241E8002371
:1021F000002BF5D101680A68D20602D50A68496841
:102200000091818DFFF796F8E7E7000070B504466E
:1022100000680169E26821F44051114301612169BC
:10222000A0680843616908432168CA6841F20C63E9
:102230009A430243CA6020684169A26921F440714F
:10224000114341611E492068884202D1FEF772FEA7
:1022500001E0FEF75FFE00EBC00101EB00126068D9
:1022600064218000B2FBF0F3B3FBF1F36FF01806CA
:102270007343B2FBF0F5B2FBF0F605EB83053223B6
:1022800003EB0515B5FBF1F5B6FBF1F605F0F0052E
:1022900005EB0615B2FBF0F6B2FBF0F0B0FBF1F087
:1022A0006FF01802504306EB800003EB0010B0FB08
:1022B000F1F0216800F00F002844886070BD000034
:1022C0000038014038B581620446828500201346FB
:1022D0006064222284F84220E56B1B4AAA62E56B07
:1022E0001A4AEA62E56B1A4A2A63E26B50630A46AD
:1022F0002168E06B091DFEF717FA20680168406845
:102300000090206948B120680C3050E8001F41F46B
:10231000807140E80012002AF5D12068143050E89E
:10232000001F41F0010140E80012002AF5D12068A9
:10233000143050E8001F41F0400140E80012002A2C
:10234000F5D1002038BD0000EF1F000875200008FF
:10235000A51F00082DE9F843984617460D46044688
:10236000089E24E0701C22D0FEF718FBA0EB0800AA
:10237000B0421AD8CEB12068C168490717D5802D60
:1023800015D0402D13D00168C94309070FD4016847
:102390000025406800902046FFF7A1FE08206064F9
:1023A00084F840500120BDE8F8830320FBE7206853
:1023B000006835EA000004D00020B842D2D00020E6
:1023C000F1E70120F9E700000148FEF7C9BF00006E
:1023D000A8000020FEE700000FB4054B10B503A9CC
:1023E000044A029800F028F810BC5DF814FB0000C5
:1023F000B5280008100000200907090E002804DB9A
:1024000000F1E02080F80014704700F00F0000F1A8
:10241000E02080F8141D704702E008C8121F08C1B0
:10242000002AFAD170477047002001E001C1121F55
:10243000002AFBD1704700002DE9FF4F8DB00F46F9
:102440000546002606E025280BD0DDE90F1290474F
:102450006D1C761C28780028F5D111B03046BDE8F7
:10246000F08F0024A246A1460122EC4900E004437B
:1024700015F8013F203B02FA03F00842F7D1287813
:102480002A2810D06FF02F022878A0F130010929F6
:1024900014D80AEB8A0102EB410144F0020400EB7C
:1024A000010A6D1CF0E701CF5FEA000A03D544F48E
:1024B0000054CAF1000A44F002046D1C28782E284A
:1024C00017D115F8010F44F004042A280ED06FF03C
:1024D0002F022878A0F1300109290AD809EB8901D7
:1024E00002EB410100EB01096D1CF2E757F8049B78
:1024F0006D1C28786C280FD006DC4C2817D0682873
:102500000DD06A2814D104E0742810D07A280FD195
:102510000DE044F400140AE044F4801401E044F4B3
:1025200040146978814202D104F580146D1C6D1C41
:102530002A786E2A1FD00CDC632A31D004DC002AF2
:102540008BD0582A11D1A3E0642A68D0692A0CD113
:1025500065E0732A2ED004DC6F2A73D0702A04D170
:102560009BE0752A6FD0782A6ED01046DDE90F12F5
:102570009047761C50E1C4F30250022806D003288D
:1025800009D0042801CF09D0066045E101CFF11739
:10259000C0E9006140E101CF06803DE106703BE10A
:1025A00017F8040B8DF8000000208DF80100EB46B1
:1025B000012003E057F804BB4FF0FF3061074FF0F4
:1025C000000102D40DE008F10101884649450FDA07
:1025D0008045F8DB1BF808100029F4D108E008F169
:1025E000010188468142FADB1BF808100029F6D168
:1025F000DDE90F23AAEB08008146214600F036F9F9
:10260000304400EB080604E0DDE90F121BF8010B73
:102610009047B8F10108F7D221464846F7E00A2171
:10262000C4F302534FF0000B0891022B04D001CFEA
:10263000C117032B09D00AE0FF1D27F00707F7E8B1
:10264000020108E032E01FE020E000B2C117042BD5
:1026500001D140B2C117031E71F1000307DA4FF038
:10266000000CD0EB0C006CEB01012D2302E02305E4
:1026700004D52B238DF82430012303E0E30701D098
:102680002023F7E7984658E00A2110E010210EE0D9
:1026900010204FF0000B08900CE010214FF0000BC1
:1026A00044F004044FF00809089103E008214FF0BA
:1026B000000B0891C4F30253022B04D001CF002178
:1026C000032B06D006E0FF1D27F00707F7E80201FD
:1026D00003E080B2042B00D1C0B24FF00008230702
:1026E0002BD5702A07D0DDF820C08CF0100C5CEAE6
:1026F0000B0C05D00EE040238DF82430012308E0B8
:1027000050EA010306D030238DF824308DF82520BF
:1027100002239846DDF820C08CF0080C5CEA0B0C14
:102720000BD150EA010301D1630706D530238DF8A0
:1027300024304FF00108A9F10109582A04D038A229
:102740000B9208AA0A920BE03AA2F9E75B46089AB4
:10275000FDF73EFD0B9B9B5C0A9A521E0A9213707A
:1027600050EA0102F2D10A98ADEB000000F1200B13
:10277000600702D524F4803401E04FF00109D94507
:1027800002DDA9EB0B0000E0002000EB0B0141444F
:102790000890AAEB010AE00306D4DDE90F232146E5
:1027A000504600F063F806444FF0000908E009A91C
:1027B00011F80900DDE90F12904709F10109761CB3
:1027C000C145F4DBE0030CD5DDE90F23214650467B
:1027D00000F04CF8064404E0DDE90F123020904789
:1027E000761C0899481E08900029F5DC08E00A9834
:1027F0000A990078491C0A91DDE90F129047761C6E
:10280000BBF10001ABF1010BF1DC21465046DDE9E3
:102810000F2300F019F806446D1C1BE6092801007F
:102820003031323334353637383961626364656646
:102830000000000030313233343536373839414208
:1028400043444546000000002DE9F04104460025C0
:102850001E461746880404D405E039462020B047B8
:102860006D1C641EF9D52846BDE8F0812DE9F041C4
:10287000044600251E469046C80301D5302700E0D7
:102880002027880404D505E041463846B0476D1C32
:10289000641EF9D52846BDE8F081000070B50546F4
:1028A000FEF77CF84FEA0004FEF778F8001BA84218
:1028B000FAD370BD13B54FF0FF33012269460248C9
:1028C000FEF726FF00981CBDA8000020FEF7FCF9CB
:1028D000FFF70EFBFDF7F2FCFFF72AF9FFF70AF905
:1028E000FFF798F9FFF776F905A0FFF775FDFFF7F9
:1028F000E0F909A0FFF770FDFFF7D8F9FEE7000047
:10290000496E697469616C697A696E67204F4C45DC
:10291000442E2E2E0D0A000046696C6C696E6720ED
:102920004F4C454420776974682077686974652E38
:102930002E2E0D0A00000000010202030405060706
:1029400008090A0B0C0D0E0F10100000000000000B
:10295000000001020304060708090000000001024C
:102960000304000084290008000000201400000077
:1029700018240008982900081400002064050000AD
:1029800028240008010000001000000000000000E2
:0829900000127A0000000000B3
:0400000508000131BD
:00000001FF
