:020000040800F2
:1000000008050020450100081719000821150008FF
:1000100015190008770200087F1F00080000000083
:10002000000000000000000000000000A11D00080A
:100030009D02000800000000551C0008A31D0008D8
:100040005F0100085F0100085F0100085F01000810
:100050005F0100085F0100085F0100085F01000800
:100060005F0100085F0100085F0100085F010008F0
:100070005F0100085F0100085F0100085F010008E0
:100080005F0100085F0100085F0100085F010008D0
:100090005F0100085F0100085F0100085F010008C0
:1000A0005F0100085F0100085F0100085F010008B0
:1000B0005F0100085F0100085F0100085F010008A0
:1000C0005F0100085F0100085F0100085F01000890
:1000D0005F0100085F0100085F0100085F01000880
:1000E0005F0100085F0100085F0100085F01000870
:1000F0005F0100085F0100085F0100085F01000860
:100100005F0100085F0100085F0100085F0100084F
:100110005F0100085F0100085F0100085F0100083F
:100120005F0100085F0100085F0100085F0100082F
:10013000DFF80CD000F07EF800480047812A000864
:10014000080500200648804706480047FEE7FEE70E
:10015000FEE7FEE7FEE7FEE7FEE7FEE7FEE7FEE777
:10016000051E000831010008202A04DB203A21FA8C
:1001700002F00021704721FA02F3D040C2F12002C0
:10018000914008431946704740EA01039B0703D09A
:1001900009E008C9121F08C0042AFAD203E011F8C6
:1001A000013B00F8013B521EF9D27047D2B201E088
:1001B00000F8012B491EFBD270470022F6E710B56C
:1001C00013460A4604461946FFF7F0FF204610BDC5
:1001D0002DE9F05F0546002092469B46884606467C
:1001E000814640241BE02846414647462246FFF709
:1001F000BBFF53465A46C01A914110D311461846C8
:10020000224600F029F82D1A67EB01084F462246D6
:100210000120002100F020F817EB00094E41201EBC
:10022000A4F10104DFDC484631462A464346BDE8D6
:10023000F09F0000064C074D06E0E06840F0010327
:1002400094E8070098471034AC42F6D3FFF774FFE8
:100250000C3300082C330008202A04DB203A00FA73
:1002600002F1002070479140C2F1200320FA03F30D
:10027000194390407047FEE70648016841F08071DD
:100280000160054800214160016841F00101016001
:1002900070470000FCED00E0001000E0704772B60F
:1002A000FEE700002DE9F84FDFF8C8910024A9F11E
:1002B000040B23460F2709F1040AABF1040ED1E029
:1002C0000125A54006EA0502AA4276D1DFF8A8C1B9
:1002D0004E68A6EB0C0866452BD00DDC032E34D0FF
:1002E00005DC36B3012E19D0022E2FD11BE0112EC2
:1002F00016D0122E2AD119E0B8F5881F19D006DCC5
:10030000B8F5803F15D0B8F5801F1FD111E0B8F5C2
:10031000001F0ED0B8F5041F18D10AE0CB6815E015
:10032000CB681B1D12E0CB6808330FE0CB680C33A1
:100330000CE08B682BB1012B4FF0080303D0456113
:1003400004E0042302E0056100E00023FF2A01D855
:10035000064601E000F104064FEA840501D9A5F143
:100360002005D6F8008007FA05FC28EA0C0803FAF5
:1003700005F548EA0508C6F800804D68ED0070D51F
:100380003E4DAE6946F00106AE61AD6924F003064C
:1003900005F0010500953A4D06EB050CDCF8085018
:1003A000A607360F07FA06F825EA0805DFF8D48015
:1003B000404503D14FF0000825E052E0DFF8C88047
:1003C000404502D14FF001081DE0DFF8C0804045F4
:1003D00002D14FF0020816E0DFF8B480404502D1A8
:1003E0004FF003080FE0DFF8AC80404502D14FF03A
:1003F000040808E0DFF8A080404502D14FF005086E
:1004000001E04FF0060808FA06F848EA0508CCF8BB
:1004100008804D68D9F80060ED024D4601D51643BD
:1004200000E096432E604D68DAF80060AD02554654
:1004300001D5164300E096432E604D68DBF800605E
:10044000AD035D4601D5164300E096432E604D682E
:10045000DEF80060ED03754601D5164300E09643D3
:100460002E60641C0A681646E2407FF429AFBDE89E
:10047000F88F000008040140000011100010024035
:100480000000014000080140000C01400010014044
:100490000014014000180140001C01400AB1016134
:1004A00070470904FBE700000148806870470000BE
:1004B0000000002070B5040025D094F83D00002510
:1004C00020B984F83C50204600F04EF9242084F8EE
:1004D0003D002068016821F0010101602068016889
:1004E00041F4004101602068016821F4004101608D
:1004F00000F088FA4D4A6168914201D84C4900E009
:100500004C49884201D2012070BD4B492368B0FBA1
:10051000F1F15E6826F03F060E435E606368934229
:1005200006D94FF4967359434FF47A73B1FBF3F144
:100530002368491C1E6A26F03F0631431962616830
:10054000914210D84900401EB0FBF1F2521CC2F398
:100550000B02042A01D2042022E0B0FBF1F0401C7F
:10056000C0F30B001CE0A268F2B301EBC10303EB84
:100570000116431EB3FBF6F35B1C43F480431B05DB
:1005800049D092B301EBC10202EB0111401EB0FB56
:10059000F1F0401CC0F30B0040F4804040F40040F8
:1005A0002168CA694CF6FF739A431043C861D4E9C5
:1005B000071001432068026822F0C0021143016065
:1005C000D4E9030101432068826848F2FF339A436B
:1005D00011438160D4E9050108432168CA6822F00B
:1005E000FF021043C86001E00EE016E020680168D9
:1005F00041F0010101602564202084F83D0025635D
:1006000084F83E50002070BD01EB4106431EB3FB51
:10061000F6F35B1CB3E70120C2E701EB4101401E8A
:10062000B0FBF1F0401CC0F30B00B7E7A08601005F
:1006300080841E0000093D0040420F002DE9F84F64
:100640001F4690468A460446DDF82890FFF72CFFA7
:10065000054694F83D0020287FD119230122404906
:100660002046009500F0EEFF002876D194F83C007B
:10067000012872D0012084F83C0020680168C90775
:1006800003D1016841F0010101602068016821F493
:1006900000610160212084F83D00102084F83E00B4
:1006A00000262664C4F824806785608D20852D4847
:1006B000E0622B464A465146204600F049FF90B979
:1006C000206841698069009036E02A464946204604
:1006D00001F05EF850B1206C042804D12068016854
:1006E00041F4007101600120BDE8F88F606A216863
:1006F00000780861606A401C6062618D491E6185F6
:10070000218D491E89B2218522685369DB435B072D
:100710000BD451B100781061606A401C6062608D3A
:10072000401E6085208D401E20852A464946204671
:1007300000F05CFF0028CED1208D0028C5D154F8F0
:100740003D0B016841F400710160202004F81E098E
:10075000E67766770020C7E7FFE70220C4E70000DE
:10076000020010000000FFFF10B586B000210091CC
:1007700001910291039100680F4988421AD10F4CF0
:10078000A06940F00800A061A069694600F0080077
:100790000490C0200090122001900320039008488C
:1007A000FFF780FDE06940F40010E061E06900F4CB
:1007B0000010049006B010BD00540040001002402C
:1007C000000C014002488168027811448160704742
:1007D00000000020074810B5016841F010010160D9
:1007E000032000F067F80F2000F006F800F024F86E
:1007F000002010BD0020024070B50D4D04464FF49E
:100800007A712878B1FBF0F00A490968B1FBF0F081
:1008100000F0B7FD48B9102C07D200222146501E27
:1008200000F028F800206C6070BD012070BD000051
:10083000000000200C0000200C4808B5816941F040
:1008400001018161816901F001010091C16941F0FB
:100850008051C161C06900F0805000900448416837
:1008600021F0E06141F00071416008BD00100240DC
:1008700000000140F0B40E4B1B680C46C3F302238A
:10088000C3F10705042D00D90425191D072901D23C
:10089000002300E0DB1E012606FA05F1491E214077
:1008A00099409E40761E16403143F0BC01F07EBE5A
:1008B0000CED00E0064900F0070208684FF6FF0360
:1008C000184040EA0220034A1043086070470000C5
:1008D0000CED00E00000FA052DE9F0470F46050099
:1008E00061D0434E306800F00700B84209D230684A
:1008F00020F0070038433060306800F00700B8424D
:1009000051D128683B4C810712D5400703D5606858
:1009100040F4E06060602878000703D5606840F428
:10092000605060606068A96820F0F0000843606073
:100930002878C00728D06868012810D021680228CC
:1009400010D0890700292EDA616821F003010143E4
:100950006160FFF7A9FD804641F288390DE021680A
:100960008903EFE78901EDE7FFF79EFDA0EB0801A2
:10097000494502D90320BDE8F0876068696800F046
:100980000C00B0EB810FEFD1306800F00700B842E7
:100990000BD9306820F0070038433060306800F031
:1009A0000700B84201D00120E5E72878400705D5C7
:1009B0006068E96820F4E060084360602878000718
:1009C00006D56068296920F4605040EAC100606083
:1009D00000F038F86168084AC1F30311515CC8405F
:1009E0000649086006480068FFF706FF0020C2E7D6
:1009F0000020024000100240F33200080C000020EA
:100A0000040000200448054900684968044AC1F30D
:100A10000221515CC84070470C00002000100240C9
:100A2000033300080448054900684968044AC1F3D3
:100A3000C221515CC84070470C00002000100240E9
:100A4000033300080E4A51680E4801F00C03042BD2
:100A500011D0082B0FD10C48C1F38343C903C05CEC
:100A60000AD55168084AC1F34041921E515C054ABB
:100A70005043B0FBF1F07047044948437047000011
:100A80000010024000127A00E332000800093D0025
:100A90002DE9F84F040070D02078C04DC00749D030
:100AA0006868C0F38100012807D06868C0F381003E
:100AB000022809D16868C00306D52868800339D5A3
:100AC00060680028E7D035E06068B0F5803F0BD063
:100AD00010B1B0F5A02F11D0286820F48030286024
:100AE000286820F4802002E0286840F480302860E4
:100AF000606890B1FFF7D8FC06460AE0286840F429
:100B000080202860F0E700BFFFF7CEFC801B642840
:100B100073D828688003F7D50CE0FFF7C5FC0646BC
:100B200005E000BFFFF7C0FC801B6428F0D82868F0
:100B30008003F7D420789A4E80074FF001094FF0D8
:100B4000000839D5686810F00C0F07D06868C0F34A
:100B50008100022809D16868C00306D4286880078C
:100B600014D52069012808D110E02069B0B1C6F879
:100B70000090FFF799FC074605E00AE1FFF794FCB7
:100B8000C01B0228C4D828688007F7D52868616987
:100B900020F0F80040EAC10028600DE0C6F80080AF
:100BA000FFF782FC074604E0FFF77EFCC01B02282B
:100BB00023D828688007F7D4207800072CD57948F7
:100BC000A169D9B1C0F80090FFF76EFC074604E0B8
:100BD000FFF76AFCC01B02280FD8686A8007F7D5A8
:100BE00071484FF4FA510068B0FBF1F0009000BF7B
:100BF0000098411E0091FAD20EE080E0C0F800801B
:100C0000FFF752FC074604E0FFF74EFCC01B02282A
:100C100075D8686A8007F7D42078400760D5E869FE
:100C20000027C00008D4E86940F08050E861E86916
:100C3000012700F0805000905C480168C90513D47A
:100C40000168834641F480710160FFF72DFC824604
:100C500006E000BFFFF728FCA0EB0A0064284ED88E
:100C6000DBF80000C005F5D5E06801280AD008B11E
:100C7000052813D0286A20F001002862286A20F095
:100C8000040002E0286A40F001002862E06841F2B6
:100C9000883B98B1FFF708FC82460BE0286A40F0D9
:100CA00004002862EEE700BFFFF7FEFBA0EB0A019D
:100CB00059455AD8286A8007F6D50CE0FFF7F4FBAF
:100CC000824605E0FFF7F0FBA0EB0A0159454CD83E
:100CD000286A8007F6D41FB1E86920F08050E861E7
:100CE000E06988B36968C1F38101022944D0022810
:100CF000C6F8608004D0FFF7D7FB044638E034E044
:100D0000FFF7D2FB074604E0FFF7CEFBC01B02282B
:100D10002BD828688001F7D4206AB0F5803F05D130
:100D20006868A16820F4003008436860D4E90801CD
:100D30000843696821F4741108436860C6F860903C
:100D4000FFF7B2FB044606E025E000BFFFF7ACFB6F
:100D5000001B022809D828688001F7D51BE000BFD6
:100D6000FFF7A2FB001B022802D90320BDE8F88F81
:100D700028688001F4D40EE00128F7D06868226A60
:100D800000F48031914204D1616A00F4701088420D
:100D900001D00120EAE70020E8E70000001002404F
:100DA00000004242800442420C00002000700040DB
:100DB00070B5040009D0606A002540B12561656105
:100DC000A56294F8510040B10CE0012070BD60684C
:100DD000B0F5827FF4D0E561F2E784F85050204608
:100DE00000F040F8022084F851002068016821F0EA
:100DF00040010160A088218900F4827001F404415F
:100E00000843A18901F400610843217C01F002013B
:100E10000843217D01F001010843218B01F4007199
:100E20000843217F01F03801084394F8201001F0B5
:100E300080010843218D01F40051084321680860B6
:100E4000A069042101EA1040216848602068C16956
:100E500021F40061C1616565012084F85100002022
:100E600070BD000030B585B0002400940194029458
:100E7000039400681549884225D11548C16941F499
:100E80008041C161C16901F480410491816941F0EF
:100E90000801816180690F4D00F0080004904FF453
:100EA00020400090022001900320039069462846CC
:100EB000FFF7F8F94FF48040CDE900046946284671
:100EC0000294FFF7EFF905B030BD00000038004094
:100ED00000100240000C01402DE9F84F044690F844
:100EE00051001D4616460F46012838D160684FF064
:100EF0000408B0F5827F01D1A06830B3FFF7D4FABF
:100F00008246002F75D0002E73D094F8500001282F
:100F100025D04FF0010984F8509084F851804FF0AB
:100F20000008C4F85480A763A687E687C4F8308019
:100F3000A4F83480A4F83680C4F84080C4F8448013
:100F4000A068B0F5004F0CD015E084F851800093F4
:100F500013460A46204600F01CF9BDE8F88F02202F
:100F6000FBE72068016821F040010160206801680A
:100F700021F48041016020680168490603D40168BA
:100F800041F040010160E068C0B134E02068816850
:100F9000C90709D0007BA16B0870A06B401CA0633F
:100FA000E08F401EE08709E0FFF77EFAA0EB0A0021
:100FB000A84202D3681C01D032E085B3E08F00283C
:100FC000E4D11BE020688168C90709D0C068A16B23
:100FD0000880A06B801CA063E08F401EE0870AE0C1
:100FE000FFF762FAA0EB0A00A84203D3681C02D004
:100FF00016E012E09DB1E08F0028E3D15246294669
:10100000204600F028FE08B12020606584F8519049
:1010100084F85080606D00289FD001209DE7FFE795
:1010200084F8519084F85080032096E72DE9F84F1A
:10103000984616468A460446FFF736FA814694F8E3
:10104000510001281ED1BAF1000F73D0002E71D0CB
:1010500094F85000012815D0012784F8507003201F
:1010600084F8510000256565C4F830A0A686E686A0
:10107000A563A587E58765642564A068B0F5004F82
:1010800003D00CE00220BDE8F88F2068016821F051
:10109000400101602068016841F4804101602068DE
:1010A0000168490603D4016841F040010160E0682D
:1010B000B0F5006F606803D048B3012E27D047E039
:1010C00008B1012E1FD1206B21680088C86006E09E
:1010D00020688168890709D5216B0988C160206B68
:1010E000801C2063E08E401EE0860CE0FFF7DCF9F8
:1010F000A0EB0901414503D3B8F1FF3F03D035E030
:10110000B8F1000F32D0E08E0028E1D123E0206B4F
:1011100021680078087306E02068816889070AD58D
:10112000216B09780173206B401C2063E08E401E08
:10113000E0860DE02BE0FFF7B7F9A0EB0901414590
:1011400003D3B8F1FF3F03D010E0B8F1000F0DD08A
:10115000E08E0028E0D14A464146204600F0A9FD35
:1011600008B120206065A06830B109E084F85170B2
:1011700084F85050032086E72068C168806800909A
:1011800084F8517004F8505F60680028F3D00120A3
:1011900079E72DE9FF4F81B01D46934604464FF095
:1011A00001090E9EFFF780F9074694F85100616827
:1011B000012806D0B1F5827F3CD1A168C9BB0428C3
:1011C00038D10298002871D0BBF1000FFBD0002D60
:1011D000F9D094F8500001282CD04FF0010A84F87F
:1011E00050A094F85100042802D0052084F8510042
:1011F0004FF00008C4F85480C4F838B0E587A587DC
:1012000002992163E586A586C4F84080C4F844802D
:1012100020680168490603D4016841F0400101607B
:10122000E068B0F5006F606808D0F0B3012D49D0D8
:1012300081E0FFE7022005B0BDE8F08F08B1012D85
:1012400039D1206B21680088C860206B801C206326
:10125000E08E401EE0862EE02068816889070FD569
:10126000E18E69B1B9F1010F0AD1216B0988C16022
:10127000206B801C2063E08E401EE0864FF000094A
:1012800020688168C9070CD0E18F51B1C068A16B9B
:101290000880A06B801CA063E08F401EE0874FF0A9
:1012A0000109FFF701F9C01B01E00BE067E0B04264
:1012B00001D3701C50D1E08E0028CDD1E08F0028E2
:1012C000CAD13EE0206B216800780873206B401C77
:1012D0002063E08E401EE0862DE02068816889074B
:1012E0000FD5E18E69B1B9F1010F0AD1216B0978EF
:1012F0000173206B401C2063E08E401EE0864FF09F
:10130000000920688168C9070CD0E18F51B1C0681D
:10131000A16B0870A06B401CA063E08F401EE087AB
:101320004FF00109FFF7C0F8C01BB04202D3701C98
:1013300001D011E086B1E08E0028CED1E08F0028E8
:10134000CBD13A463146204600F0B3FC50B12020C4
:10135000606584F8508012E084F851A084F85080D1
:10136000032068E7A06818B92068C1688068009009
:1013700084F851A084F85080606D0028F1D00120DD
:1013800059E710B5401EB0F1807F01D3012010BD98
:101390004FF0E02460610F21601701F007F9002091
:1013A000A06107202061002010BD70B5040004D0AA
:1013B00094F84100002510B106E0012070BD84F8CA
:1013C0004050204600F024F8242084F84100206892
:1013D000C16821F40051C160204600F03BFD206847
:1013E000016921F4904101612068416921F02A01DD
:1013F00041612068C16841F40051C16065642020EA
:1014000084F8410084F842006563002070BD00004C
:1014100030B585B0002400940194029403940068D0
:101420001449884224D11448816941F48041816182
:10143000816901F480410491816941F00401816175
:1014400080690E4D00F0040004904FF4007000908D
:10145000022001900320039069462846FEF722FFF0
:101460002815CDE90004694628460294FEF71AFFC4
:1014700005B030BD003801400010024000080140B6
:101480002DE9F843044690F84100984616460D466B
:10149000202802D00220BDE8F88385B17EB100206B
:1014A0006064212084F84100FEF7FEFFA684814697
:1014B000E684A0682027B0F5805F02D003E0012019
:1014C000E9E7206910B12E4600250EE000260CE069
:1014D0008021204600F01AFDA8B9C6B116F8010B0C
:1014E00021684860E08C401EE084E08C4B464FF061
:1014F0000002CDF800800028EAD14FF040012046DC
:1015000000F004FD40B184F841700320C3E735F8D2
:10151000020BC0F30800E3E784F841700020BAE74B
:10152000FEE701684A69D24352050FD46FF4806226
:101530004A61002140F8301F202242738173026902
:1015400042F00402026101730120704700207047DD
:10155000F8B50446C06A1E460D461746082807D04F
:10156000012805D010F5803F02D0206B122804D14D
:101570002068016841F480710160134600224FF039
:1015800001112046009600F05DF840B12068006827
:10159000C00502D54FF4007020640320F8BD206917
:1015A000B0F5804F0ED00620216800EAD51040F03B
:1015B000F000086133463A460B49204600F08AF8AD
:1015C00078B902E005F0FE0000E0E8B221680861A9
:1015D000054933463A46891F204600F07BF800282B
:1015E000DCD00120F8BD00000800010070B51646EF
:1015F0000D4604461EE02046FFF793FF08B1012088
:1016000070BD681C16D0FEF74FFF801BA84200D8A3
:1016100085B920684069C04340070BD5002044F8D5
:10162000300F20216173A073216941F020012161F5
:101630002073E4E720684069C0434007DBD4002002
:1016400070BD00002DE9F047984617460D46044648
:10165000C1F30746DDF820902AE000BFB8F1FF3F54
:1016600026D0FEF721FFA0EB0901414502D8B8F1D1
:10167000000F1DD12068012E16D0806925EA0000D8
:101680000004000C12D00020B84211D1002044F810
:10169000300F20216173A073216941F02001216185
:1016A00020730120BDE8F0874069E7E70120EBE700
:1016B0002068012E0AD0806925EA00000004000C91
:1016C00006D00020B842C9D00020EBE74069F3E71C
:1016D0000120F7E72DE9F047984616460D460446E7
:1016E0004FF000094FF0200AC1F3074723E02068BC
:1016F0004069C043400515D42068016841F4007179
:10170000016021686FF480604861C4F8309084F80B
:101710003DA084F83E90216C41F00401216484F8DE
:101720003C9021E0701C06D0FEF7BEFEA0EB080046
:10173000B04203D816B1012F1FD021E02068012F3D
:1017400015D0806925EA00000004000C18D000BF05
:1017500044F8309F84F80DA084F80E90216941F080
:101760002001216184F80C900120BDE8F0874069D8
:1017700025EA00000004000CEAD12068406901E07D
:101780002068806925EA00000004000CAFD1ECE776
:1017900070B516460D4604461EE02046FFF7C1FE12
:1017A00008B1012070BD681C16D0FEF77DFE801BBD
:1017B000A84200D885B920684069C04300060BD50F
:1017C000002044F8300F20216173A073216941F09B
:1017D000200121612073E4E720684069C0430006CE
:1017E000DBD4002070BD000070B586B0002418481E
:1017F0000094019402940394816941F01001816185
:10180000816901F010010491816941F00801816151
:10181000816901F008010491816941F0040181614D
:101820008069012200F004000A4E15030490294645
:101830003046FEF733FE01200095CDE90104022079
:10184000039069463046FEF72DFD06B070BD0000DE
:1018500000100240000C01400D4810B50B4901601A
:101860000C49416000214FF480428160C0E90312BD
:1018700041618161C1610162FEF71CFE002803D055
:10188000BDE81040FEF70BBD10BD00000054004045
:1018900014000020801A06000F4810B50D490160A1
:1018A0004FF48271416000218160C1604FF4007289
:1018B0000161C0E90512C1610162416281620A21D0
:1018C000C162FFF775FA002803D0BDE81040FEF7AB
:1018D000E6BC10BD00380040680000200C4810B580
:1018E0000A4901604FF4E1314160002181600C221E
:1018F000C160C0E904128161C161FFF756FD002893
:1019000003D0BDE81040FEF7CABC10BD003801404E
:10191000C0000020FEE7FEE71CB500218DF8041092
:10192000642100914100002301AA0348FEF786FECE
:10193000002800D001201CBD1400002010B5A0B06C
:10194000044680216846FEF738FC2246802168461E
:10195000FEF72CFC00240021204600F08CF88022A9
:101960006946402000F0F0F8641CE4B2082CF2D381
:1019700020B010BD10B5642001F06AF83C20FFF7DC
:10198000CBFF0028FAD1AF2100F02EF92021002052
:1019900000F02AF90221002000F026F9B0210020F1
:1019A00000F022F9A121002000F01EF9C82100203A
:1019B00000F01AF90021084600F016F91021002065
:1019C00000F012F94021002000F00EF90121002062
:1019D00000F00AF97F21002000F006F9A121002083
:1019E00000F002F9A621002000F0FEF8A821002056
:1019F00000F0FAF83F21002000F0F6F8A4210020C2
:101A000000F0F2F8D321002000F0EEF800210846A3
:101A100000F0EAF8D521002000F0E6F8F0210020DF
:101A200000F0E2F8D921002000F0DEF822210020A9
:101A300000F0DAF8DA21002000F0D6F812210020B8
:101A400000F0D2F8DB21002000F0CEF820210020A9
:101A500000F0CAF88D21002000F0C6F81421002003
:101A600000F0C2F8AF21002000F0BEF8BDE8104041
:101A70000020FFF763BF08B5B0308DF800001020DC
:101A800040EA11108DF8010001F00F008DF80200FE
:101A900003226946002000F057F808BD2DE9F04107
:101AA0000F460646A2F12005062B20D0082B1CD19C
:101AB000FFF7E1FF1648002400EB05154020295DE3
:101AC00000F092F8641CE4B2082CF7D3761CF0B254
:101AD0003946FFF7D0FF00242819017A402000F092
:101AE00083F8641CE4B2082CF6D3BDE8F081FFF75C
:101AF000C2FF084905EB4500002401EB40054020EA
:101B0000295D00F071F8641CE4B2062CF7D3ECE711
:101B1000F12C0008B72A00082DE9F0411E461546B1
:101B20000F468046002409E004FB0670C1B233462C
:101B300040466D1CFFF7B2FF641CE4B22A78002A0D
:101B4000F2D1BDE8F081000010B5C2B01446FF2A02
:101B500002D911460CA012E08DF804000DF1050029
:101B6000FEF712FB64200090601C83B201AA78216A
:101B70001248FEF763FD002804D0214610A000F0B3
:101B800005FD012042B010BD6F6C6564207772695D
:101B9000746520627566666572206661696C65644D
:101BA0003A206E756D203D20256C75206973207478
:101BB0006F6F206C617267650D0A000014000020D1
:101BC0006F6C6564207772697465206275666665FE
:101BD00072206661696C65643A206E756D203D20E7
:101BE000256C750D0A0000007CB58DF804000546D3
:101BF00064200C468DF805100090022301AA78217C
:101C00000548FEF71BFD002805D02246294603A003
:101C100000F0BCFC01207CBD140000206F6C6564EA
:101C20002077726974652062797465206661696CD9
:101C300065643A636D64203D203078253032582049
:101C40002C2062797465203D203078253032580D83
:101C50000A0000007047F8B5044640684FF48273EC
:101C6000984217D1A0684FF48065B0F5004F01D0BD
:101C7000A8420FD12068066826F04006066060681A
:101C8000984207D1A068A84204D100920B460022D6
:101C9000012103E000920B4600228021204600F043
:101CA00023F8002804D0606D40F020006065032018
:101CB000F8BDF8B515460E460B46009204460122C3
:101CC000022100F011F840B933460022802120465D
:101CD000009500F009F8002804D0606D40F0200065
:101CE00060650320F8BD00002DE9F8431E469146CB
:101CF00088460446089DFEF7D7FB401B351AFEF7C1
:101D0000D3FB074625480068C0F3CB30684338E072
:101D1000701C37D0FEF7C8FBC01BA84203D215B118
:101D2000009860B32CE02068416821F0E001416038
:101D30006068B0F5827F0BD1A068B0F5004F02D08B
:101D4000B0F5806F04D12068016821F04001016086
:101D5000A06AB0F5005F09D12068016821F4005144
:101D600001602068016841F400510160012084F89D
:101D70005100002084F850000320BDE8F8830025BE
:101D8000401E00902068816838EA010004D00021DC
:101D90004945BDD10020F0E70121F9E70C00002002
:101DA0007047FEF70FBD30B58FB028216846FEF7AB
:101DB00004FA14210AA8FEF700FA01210804CDE96B
:101DC00000100024029402250491CDE907504FF43D
:101DD000E01009906846FEF75BFE08B172B6FEE7B8
:101DE0000F20CDE90A054FF48060CDE90C400221B7
:101DF0000AA80E94FEF770FD002801D072B6FEE727
:101E00000FB030BD704701680C3151E8002F22F44B
:101E1000907241E80023002BF5D10168143151E89C
:101E2000002F22F0010241E80023002BF5D1016BC5
:101E3000012909D101680C3151E8002F22F010026C
:101E400041E80023002BF5D1202180F84210002129
:101E50000163704770B5044600680169E26821F4C7
:101E60004051114301612169A06808436169084339
:101E70002168CA6841F20C639A430243CA60206831
:101E80004169A26921F44071114341611E492068F2
:101E9000884202D1FEF7C6FD01E0FEF7B3FD00EB7C
:101EA000C00101EB0012606864218000B2FBF0F316
:101EB000B3FBF1F36FF018067343B2FBF0F5B2FB1E
:101EC000F0F605EB8305322303EB0515B5FBF1F5C1
:101ED000B6FBF1F605F0F00505EB0615B2FBF0F6E2
:101EE000B2FBF0F0B0FBF1F06FF01802504306EBDC
:101EF000800003EB0010B0FBF1F0216800F00F0050
:101F00002844886070BD0000003801402DE9F84386
:101F1000984617460D460446089E24E0701C22D0C1
:101F2000FEF7C2FAA0EB0800B0421AD8CEB1206882
:101F3000C168490717D5802D15D0402D13D00168F1
:101F4000C94309070FD40168002540680090204666
:101F5000FFF759FF0820606484F840500120BDE875
:101F6000F8830320FBE72068006835EA000004D00E
:101F70000020B842D2D00020F1E70120F9E7FEE7C7
:101F800038B5C7208DF8000000F046FA0D4D4FF42B
:101F90008054002221462846FEF780FA4FF0FF3396
:101FA000012269460848FFF741F810B107A000F088
:101FB000EDFA012221462846FEF770FA00F0AAF950
:101FC00038BD0000000C0140680000205732355138
:101FD0003132382042756C6B457261736520636FD6
:101FE0006D6D656E64206572726F720D0A0000007F
:101FF0002DE9F84388460021009103218DF8001057
:10200000010C8DF80110010A8DF80210134E1446D0
:102010008DF803004FF48055002229463046FEF724
:102020003DFA4FF0FF373B46042269460C48FEF765
:10203000FDFF10B10BA000F0A9FA3B462246414635
:102040000748FEF749FF10B110A000F09FFA0122E7
:1020500029463046FEF722FABDE8F883000C01401D
:1020600068000020573235513132382052656164A2
:102070004275666665722053656E6420636F6D6D90
:10208000616E64206572726F720D0A0057323551AD
:10209000313238205265616442756666657220523D
:1020A0006563656976652064617461206572726F2D
:1020B000720D0A0030B585B00020019090218DF896
:1020C000041002908DF805008DF806008DF80800C8
:1020D000154D039004908DF807008DF80900024615
:1020E0004FF4805421462846FEF7D8F94FF0FF30D0
:1020F0000090062303AA01A90C48FFF74AF800281C
:102100004FF001022146284607D0FEF7C7F908A084
:1021100000F03CFA002005B030BDFEF7BFF9BDF875
:10212000100040BAF7E70000000C014068000020F2
:10213000573235513132385F526561644944206508
:1021400072726F720D0A00003EB518A0184D00683B
:102150000290002002464FF4805401902146284608
:10216000FEF79CF94FF0FF300090042301AA02A96A
:102170001048FFF70EF800284FF0010221462846CC
:1021800006D0FEF78BF90CA000F000FA00203EBD4F
:10219000FEF784F99DF805009DF80610000440EA5A
:1021A00001209DF8071008433EBD00009F0000007D
:1021B000000C014068000020573235513132385F41
:1021C000526561644A454445434944206572726FD3
:1021D000720D0A0030B589B0FFF7D2FEFFF76AFF33
:1021E0000546FFF7B1FF044629462CA000F0CEF9C2
:1021F000214630A000F0CAF90021082334A2084685
:10220000FFF78AFC2A0A082350210020FFF746FC2A
:10221000EAB2082358210020FFF740FC08232FA230
:1022200000210220FFF778FC0823C4F30742502165
:102230000220FFF733FC0823C4F3072258210220B1
:10224000FFF72CFCE2B2082360210220FFF726FCF6
:10225000254B04AC0FCB84E80F000F2204A900200B
:1022600000F0B4F800200090019002900F2269461F
:102270000390FFF7BDFE69461CA000F087F9082314
:1022800022A200210420FFF747FC08236A462821E8
:102290000420FFF741FC09B030BD00005732355132
:1022A0003132382049443A203078253034580D0AEC
:1022B0000000000057323551313238204A4544453C
:1022C000432049443A203078253036580D0A000022
:1022D000573235513132382049443A004A45444555
:1022E000432049443A000000A82A0008526561646E
:1022F00020646174612066726F6D205732355131F0
:1023000032383A2025730D0A0000000052656164DE
:102310003A000000FEB505208DF808000020154E9B
:102320008DF8040002464FF4805529463046FEF7EA
:10233000B5F84FF0FF34012301AA02A90E4800941A
:10234000FEF727FF10B10DA000F020F9234601226F
:1023500001A90948FEF7C0FD10B113A000F016F95D
:102360009DF80400C007F1D1012229463046FEF74E
:1023700095F8FEBD000C0140680000205732355131
:102380003132382053656E64207265616420737445
:102390006174757320636F6D6D616E642065727218
:1023A0006F7221210D0A0000573235513132382029
:1023B00072656365697665207374617475732065F1
:1023C00072726F7221210D0A000000002DE9F041A8
:1023D00006460F46144610F0FF004FF4807817D0E1
:1023E000C0F58075AC4201D92A460BE03046BDE805
:1023F000F04100F041B84046844200D8204685B202
:102400002A463946304600F037F82E442F44641BE4
:10241000002CF0D1BDE8F08138B506200D4D8DF8C7
:1024200000004FF48054002221462846FEF736F87B
:102430004FF0FF33012269460748FEF7F7FD10B160
:1024400006A000F0A3F8012221462846FEF726F850
:1024500038BD0000000C01406800002057323551A3
:102460003132385F5772697465456E61626C652000
:102470006572726F720D0A002DE9F8431546044625
:10248000C6B270198846B0F5807F02D91CA000F052
:102490007DF80020009002208DF80000200C8DF8BF
:1024A0000100200A8DF802008DF80360FFF7B4FFE9
:1024B000214E4FF48054002221463046FDF7EEFFB6
:1024C0004FF0FF373B46042269461C48FEF7AEFD3D
:1024D00010B11BA000F05AF83B462A464146174867
:1024E000FEF7A4FD10B120A000F050F80122214613
:1024F0003046FDF7D3FFFFF70DFFBDE8F88300007E
:1025000057323551313238205772697465506167DE
:1025100065206572726F723A2073697A65206578FA
:102520006365656473207061676520626F756E64B2
:102530006172790D0A000000000C01406800002063
:10254000573235513132382057726974655061679E
:10255000652053656E6420636F6D6D616E642065E8
:1025600072726F720D0A00005732355131323820C5
:102570005772697465506167652053656E642064A5
:10258000617461206572726F720D0A000FB4054BA1
:1025900010B503A9044A029800F028F810BC5DF8B1
:1025A00014FB0000692A0008100000200907090E2A
:1025B000002804DB00F1E02080F80014704700F0F0
:1025C0000F0000F1E02080F8141D704702E008C8F9
:1025D000121F08C1002AFAD170477047002001E09D
:1025E00001C1121F002AFBD1704700002DE9FF4FE7
:1025F0008DB00F460546002606E025280BD0DDE904
:102600000F1290476D1C761C28780028F5D111B068
:102610003046BDE8F08F0024A246A1460122EC49D5
:1026200000E0044315F8013F203B02FA03F00842A2
:10263000F7D128782A2810D06FF02F022878A0F13F
:102640003001092914D80AEB8A0102EB410144F058
:10265000020400EB010A6D1CF0E701CF5FEA000AFB
:1026600003D544F40054CAF1000A44F002046D1C7E
:1026700028782E2817D115F8010F44F004042A28D1
:102680000ED06FF02F022878A0F1300109290AD866
:1026900009EB890102EB410100EB01096D1CF2E736
:1026A00057F8049B6D1C28786C280FD006DC4C284A
:1026B00017D068280DD06A2814D104E0742810D0EF
:1026C0007A280FD10DE044F400140AE044F4801499
:1026D00001E044F440146978814202D104F5801489
:1026E0006D1C6D1C2A786E2A1FD00CDC632A31D039
:1026F00004DC002A8BD0582A11D1A3E0642A68D0C8
:10270000692A0CD165E0732A2ED004DC6F2A73D0BD
:10271000702A04D19BE0752A6FD0782A6ED01046BB
:10272000DDE90F129047761C50E1C4F302500228F5
:1027300006D0032809D0042801CF09D0066045E15E
:1027400001CFF117C0E9006140E101CF06803DE112
:1027500006703BE117F8040B8DF8000000208DF89F
:102760000100EB46012003E057F804BB4FF0FF30B7
:1027700061074FF0000102D40DE008F10101884625
:1027800049450FDA8045F8DB1BF808100029F4D121
:1027900008E008F1010188468142FADB1BF80810C5
:1027A0000029F6D1DDE90F23AAEB08008146214676
:1027B00000F036F9304400EB080604E0DDE90F12C2
:1027C0001BF8010B9047B8F10108F7D221464846A3
:1027D000F7E00A21C4F302534FF0000B0891022BDB
:1027E00004D001CFC117032B09D00AE0FF1D27F049
:1027F0000707F7E8020108E032E01FE020E000B23E
:10280000C117042B01D140B2C117031E71F100039F
:1028100007DA4FF0000CD0EB0C006CEB01012D231C
:1028200002E0230504D52B238DF82430012303E097
:10283000E30701D02023F7E7984658E00A2110E08B
:1028400010210EE010204FF0000B08900CE010213A
:102850004FF0000B44F004044FF00809089103E026
:1028600008214FF0000B0891C4F30253022B04D04F
:1028700001CF0021032B06D006E0FF1D27F007073C
:10288000F7E8020103E080B2042B00D1C0B24FF0A0
:10289000000823072BD5702A07D0DDF820C08CF064
:1028A000100C5CEA0B0C05D00EE040238DF82430B0
:1028B000012308E050EA010306D030238DF82430CC
:1028C0008DF8252002239846DDF820C08CF0080CF6
:1028D0005CEA0B0C0BD150EA010301D1630706D56A
:1028E00030238DF824304FF00108A9F10109582A4E
:1028F00004D038A20B9208AA0A920BE03AA2F9E798
:102900005B46089AFDF764FC0B9B9B5C0A9A521E7F
:102910000A92137050EA0102F2D10A98ADEB00005E
:1029200000F1200B600702D524F4803401E04FF061
:102930000109D94502DDA9EB0B0000E0002000EB06
:102940000B0141440890AAEB010AE00306D4DDE93B
:102950000F232146504600F063F806444FF000096B
:1029600008E009A911F80900DDE90F12904709F103
:102970000109761CC145F4DBE0030CD5DDE90F232A
:102980002146504600F04CF8064404E0DDE90F1201
:1029900030209047761C0899481E08900029F5DCE5
:1029A00008E00A980A990078491C0A91DDE90F129B
:1029B0009047761CBBF10001ABF1010BF1DC214625
:1029C0005046DDE90F2300F019F806446D1C1BE6A4
:1029D00009280100303132333435363738396162F5
:1029E00063646566000000003031323334353637B9
:1029F0003839414243444546000000002DE9F0418A
:102A0000044600251E461746880404D405E03946CE
:102A10002020B0476D1C641EF9D52846BDE8F08122
:102A20002DE9F041044600251E469046C80301D515
:102A3000302700E02027880404D505E041463846C9
:102A4000B0476D1C641EF9D52846BDE8F081000032
:102A500070B50546FDF728FD4FEA0004FDF724FD9B
:102A6000001BA842FAD370BD13B54FF0FF3301220B
:102A700069460248FEF704FD00981CBDC000002016
:102A8000FDF7A8FEFFF78FF9FEF7AEFEFEF7E4FEB6
:102A9000FEF724FFFEF700FFFDF7EEFBFEF76AFFEF
:102AA000FFF798FBFEE7000048656C6C6F2057321B
:102AB0003551313238000000000000000000004CA9
:102AC000400000000202020000207C28283E200076
:102AD0006C4A7424000C523C7C5270304C7A6C501E
:102AE000400002000000000000007C820000423C28
:102AF0000000000018381018000000101810000026
:102B0000C000000000080808080808004000000095
:102B100000004030080600007C42427C0000004477
:102B20007C0000006462524C000064424A7C000059
:102B300010287C2000006C4C4C7000007C4A4A74C9
:102B4000000004641C0400007C4A527C00005C52BB
:102B5000523C000000484800000000C8000000008F
:102B600018282442000018181818000042242818B9
:102B700000000462520C0018647A566C1840301C35
:102B80001C7000007C54545C2018644242422400B3
:102B90007C44442418007C54544400007C14141CCD
:102BA00004384442426400007C10107C0000007C29
:102BB000440000808080FC0400007C083440000059
:102BC0007C40404000704C70107C00007C08103C41
:102BD00000186442424438007C14140C04384462E7
:102BE00042C438007C14146C00004C4A5274000437
:102BF000047C040404007C40407C00000C30300C59
:102C000000003C143C1C04004428384400000478B4
:102C10000804000064544C44000000FE8280000060
:102C20000608304000008082FE0000000101010122
:102C300000808080808080000101000000006058DA
:102C4000587040007E4848700000704848400000BE
:102C50007048487E4000706868500000087C0C0C8A
:102C60000000F0E8E8D808007E0808700000087846
:102C7000400000008080887A00007E103848000004
:102C8000007E400000784848704870087808087056
:102C90000000704848700008F8484870000070480C
:102CA00048F00008487008080000505868680000A4
:102CB000087C4848000878404078400818202018D0
:102CC000000838283838080048383848000098A0EC
:102CD0006018080048685848000000007E80000026
:102CE0000000FF000000807E0000000001010202E1
:102CF00000000000000000000000000000000000D4
:102D000000000000F8000000000000003300000098
:102D10000000100C02100C02000000000000000077
:102D2000000040C07840C0780000043F04043F0425
:102D30000000708888FC08300000182020FF211E49
:102D400000F008F0806018000000310C031E211E06
:102D50000000F00888700000001E21232C19272194
:102D60001000120E00000000000000000000000033
:102D700000000000E01804020000000007182040D6
:102D80000000020418E000000000402018070000C6
:102D900000404080F0804040000202010F0102022A
:102DA0000000000000E0000000000101010F01012F
:102DB0000100000000000000000090700000000012
:102DC00000000000000000000000010101010101FD
:102DD0000000000000000000000030300000000093
:102DE0000000000000C03804000060180700000068
:102DF0000000E010080810E000000F102020100F65
:102E00000000001010F8000000000020203F2020EB
:102E100000007008080808F0000030282422213043
:102E20000000300808088870000018202121221CAA
:102E3000000000804030F8000000060524243F24F4
:102E40002400F88888880808000019202020110E26
:102E50000000E0108888900000000F112020201F43
:102E60000000180808886818000000003E010000F3
:102E7000000070880808887000001C222121221C94
:102E80000000F008080810E0000001122222110FD3
:102E900000000000C0C00000000000003030000052
:102EA000000000008000000000000000E0000000C2
:102EB00000000080402010080000010204081020DB
:102EC0000000404040404040000002020202020276
:102ED00000000810204080000000201008040201BB
:102EE00000007048080888700000000030370000BB
:102EF00000C030C828E810E000071827282F28173E
:102F0000000000C038E0000000203C230202273807
:102F10002008F8888888700000203F202020110EAB
:102F200000C03008080808380007182020201008C2
:102F30000008F808080810E000203F202020100FAB
:102F40000008F88888E8081000203F202023201877
:102F50000008F88888E8081000203F2000030000DF
:102F600000C03008080838000007182020221E0280
:102F70000008F808000008F808203F210101213F5F
:102F800020000808F8080800000020203F2020004A
:102F90000000000808F8080800C08080807F00005A
:102FA0000008F888C028180800203F200126382093
:102FB0000008F8080000000000203F2020202030FA
:102FC0000008F8F800F8F80800203F013E013F2013
:102FD0000008F830C00008F808203F200007183F1C
:102FE00000E01008080810E0000F10202020100F4B
:102FF0000008F808080808F000203F21010101003E
:1030000000E01008080810E0000F10282830504F8A
:103010000008F8888888887000203F2000030C3062
:103020002000708808080838000038202121221C60
:1030300000180808F8080818000000203F200000C9
:103040000008F808000008F808001F202020201FB2
:10305000000878880000C83808000007380E010012
:103060000008F800F800F8080000033E013E0300E5
:1030700000081868808068180820302C03032C3062
:10308000200838C800C83808000000203F20000091
:103090000010080808C83808002038262120201809
:1030A00000000000FE020202000000007F404040DD
:1030B00000000438C000000000000000010638C015
:1030C0000000020202FE000000004040407F0000BD
:1030D00000000004020204000000000000000000E4
:1030E0000000000000000000008080808080808060
:1030F0008000020204000000000000000000000048
:1031000000000080808000000000192424123F206D
:103110000010F0008080000000003F112020110E00
:10312000000000008080800000000E11202020118F
:1031300000000080808090F000001F202020103FC1
:10314000200000808080800000001F242424241799
:1031500000008080E0909020000020203F20200090
:10316000000000808080808000006B9494949360C5
:103170000010F0008080800000203F210000203FF0
:103180002000809898000000000020203F202000B0
:1031900000000000809898000000C08080807F00C0
:1031A0000010F0000080808000203F24062930209D
:1031B00000001010F8000000000020203F20200038
:1031C000008080808080808000203F20003F2000A1
:1031D0003F8080008080800000203F210000203F51
:1031E000200000808080800000001F202020201F01
:1031F00000808000808000000080FF912020110E60
:10320000000000008080008000000E11202091FF4F
:1032100080808080008080800020203F212000016D
:103220000000008080808080000033242424241942
:1032300000008080E0808000000000001F2020103F
:10324000008080000000808000001F202020103FB0
:1032500020808080008080800000030C300C030000
:10326000008080008080008080010E300C073806CE
:103270000100808080008080000020310E2E3120EF
:1032800000808080000080808000818678180601A0
:103290000000808080808080000021302C2221303E
:1032A000000000000000FC020200000000013E409F
:1032B0004000000000FF00000000000000FF0000D0
:1032C000000202FC000000000040403E010000003F
:1032D00000000201020204020000000000000000E1
:1032E00000010202030405060708090A0B0C0D0E73
:1032F0000F1010000000000000000001020304068F
:103300000708090000000001020304002C33000834
:103310000000002014000000CC2500084033000805
:1033200014000020F4040000DC2500080100000067
:10333000100000000000000000127A0000000000F1
:0400000508000131BD
:00000001FF
